:020000040800F2
:100000000060002001470008053E0008093E000886
:1000100000000000000000000000000000000000E0
:100020000000000000000000000000004D3E00083D
:1000300000000000000000004F3E0008513E000894
:100040005147000851470008514700085147000830
:1000500051470008B53E000851470008E53E00083A
:10006000F13E0008013F0008113F0008293F000849
:100070005147000851470008514700085147000800
:100080005147000800000000000000005147000830
:100090000000000051470008514700085147000880
:1000A0005147000851470008393F000851470008F0
:1000B00051470008000000000000000000000000A0
:1000C000EF0505546865726D616C204772697A7A34
:1000D0006C792057697265566965772050726F2078
:1000E00049490054472D57562D50524F322D4657EF
:1000F0005F32303236303930325F303734310000E1
:0401000000000020DB
:1001040010B5064C2378002B07D1054B002B02D0E9
:10011400044800E000BF0123237010BD74010020D7
:100124000000000020CE0108044B10B5002B03D0C2
:100134000349044800E000BF10BDC04600000000B1
:100144007801002020CE01080023C25C0133002A7C
:10015400FBD1581E7047000002B47146490849009B
:10016400095649008E4402BC7047C04602B4714629
:1001740049084900095C49008E4402BC7047C046E6
:1001840003B47146490840004900095E49008E44A1
:1001940003BC704703B47146490840004900095A3A
:1001A40049008E4403BC7047002243088B4274D339
:1001B40003098B425FD3030A8B4244D3030B8B4264
:1001C40028D3030C8B420DD3FF22090212BA030C6D
:1001D4008B4202D31212090265D0030B8B4219D34E
:1001E40000E0090AC30B8B4201D3CB03C01A52416E
:1001F400830B8B4201D38B03C01A5241430B8B42B6
:1002040001D34B03C01A5241030B8B4201D30B039E
:10021400C01A5241C30A8B4201D3CB02C01A5241C5
:10022400830A8B4201D38B02C01A5241430A8B4288
:1002340001D34B02C01A5241030A8B4201D30B0271
:10024400C01A5241CDD2C3098B4201D3CB01C01A8B
:10025400524183098B4201D38B01C01A5241430995
:100264008B4201D34B01C01A524103098B4201D383
:100274000B01C01A5241C3088B4201D3CB00C01AF0
:10028400524183088B4201D38B00C01A5241430868
:100294008B4201D34B00C01A5241411A00D201468D
:1002A400524110467047FFE701B5002000F0F0F816
:1002B40002BDC0460029F7D076E7704703460B43DA
:1002C4007FD4002243088B4274D303098B425FD34B
:1002D400030A8B4244D3030B8B4228D3030C8B4277
:1002E4000DD3FF22090212BA030C8B4202D312125D
:1002F400090265D0030B8B4219D300E0090AC30B32
:100304008B4201D3CB03C01A5241830B8B4201D3DE
:100314008B03C01A5241430B8B4201D34B03C01AC7
:100324005241030B8B4201D30B03C01A5241C30A3F
:100334008B4201D3CB02C01A5241830A8B4201D3B0
:100344008B02C01A5241430A8B4201D34B02C01A9A
:100354005241030A8B4201D30B02C01A5241CDD23F
:10036400C3098B4201D3CB01C01A524183098B428A
:1003740001D38B01C01A524143098B4201D34B0173
:10038400C01A524103098B4201D30B01C01A5241D6
:10039400C3088B4201D3CB00C01A524183088B425D
:1003A40001D38B00C01A524143088B4201D34B0046
:1003B400C01A5241411A00D20146524110467047B8
:1003C4005DE0CA0F00D04942031000D340425340BD
:1003D40000229C4603098B422DD3030A8B4212D37D
:1003E400FC22890112BA030A8B420CD389019211AF
:1003F4008B4208D3890192118B4204D389013AD0EC
:10040400921100E08909C3098B4201D3CB01C01AC0
:10041400524183098B4201D38B01C01A52414309D3
:100424008B4201D34B01C01A524103098B4201D3C1
:100434000B01C01A5241C3088B4201D3CB00C01A2E
:10044400524183088B4201D38B00C01A5241D9D246
:1004540043088B4201D34B00C01A5241411A00D2C7
:100464000146634652415B10104601D34042002BC3
:1004740000D54942704763465B1000D3404201B542
:10048400002000F005F802BD0029F8D016E77047F7
:100494007047C046844608006146FFE71FB500F078
:1004A40023FD002801D40021C8421FBD10B500F06F
:1004B400ABFC4042013010BD10B500F015FD002822
:1004C40001DB002010BD012010BDC04610B500F0B6
:1004D4000BFD002801DD002010BD012010BDC04629
:1004E40010B500F0B9FC002801DC002010BD01208B
:1004F40010BDC04610B500F0AFFC002801DA0020A2
:1005040010BD012010BDC046002B15D1002A13D107
:10051400002906DB01DC002806D00020C043410886
:1005240002E080210906002007B4024801A1401816
:10053400029003BD5DFFFFFF03B4684601B5029856
:1005440000F020F9019B9E4602B00CBC7047C046E7
:10055400002B11D1002A0FD1002900D1002802D08C
:100564000021C943080007B4024802A140180290C0
:1005740003BDC0461DFFFFFF03B4684601B50298E2
:1005840000F034F8019B9E4602B00CBC7047C04694
:10059400F0B5CE469946030C9C46130447461B0C03
:1005A4001D000E0061460404240C80B50700100CE5
:1005B4004B436543414360432C0CC01824188C46BC
:1005C400A34203D980235B029846C4444946794335
:1005D4005643230C2D042D0C8919634424046019FB
:1005E400C918C0BCB946B046F0BDC046F0B55746C0
:1005F4004E464546DE46E0B504000D009246994657
:1006040083B08B4230D82DD04946504601F0D6F8FD
:1006140029000600200001F0D1F8331A9846203B47
:1006240034D49B4653465A46934042461F00534691
:1006340093401E00AF423BD8AF4200D179E05B4605
:10064400A41BBD41002B00DA76E0002200230092B7
:10065400019301235A469340019301234246934058
:10066400009329E08242CFD9002200230092019313
:100674000C9B002B01D01C605D600098019903B0B5
:10068400F0BCBB46B246A946A046F0BD42469B46D6
:1006940020239B1A5246DA40414613004A468A40B8
:1006A400170042461F43534693401E00AF42C3D92E
:1006B40000220023009201934346002BD8D0FB076D
:1006C40072081A4346467B080EE0AB4201D1A242AF
:1006D4000CD8A41A9D41012024196D410021013E2A
:1006E40024184D41002E06D0AB42EED9013E241908
:1006F4006D41002EF8D1009801995B4600196941BB
:10070400002B24DB2B005A464646D3402A001C000B
:10071400F2405B461500002B2ADB26009E40330086
:1007240026004746BE403200801A9941009001914C
:100734009EE7A342BCD882E74246202300219B1AAD
:100744000022009101920122DA40019285E742469B
:1007540020239B1A2A0046469A402300F34046462B
:1007640013432A001C00F2405B461500002BD4DA28
:10077400202342462F009B1B97402600DE403B006F
:100784003343CDE7F8B5CE46474680B59146984603
:1007940004000D0001F01EF807000E0002000B001B
:1007A40048464146FFF7F4FE241A8D41089B380061
:1007B40031001C605D60C0BCB946B046F8BDC0469F
:1007C4004A02F8B5530ACE4699464B00C90F47462C
:1007D400884646004502360E1B0E80B5C40F6F0ACC
:1007E4009209AD09F11A44454BD0002938DD002B9C
:1007F40000D174E0FF2E00D1BEE08023DB041A4355
:100804001B2900DCFDE0013D6B0100D4AFE00125B4
:100814006D42AD01AF09380000F0B2FF3B0005386E
:100824008340864200DCD3E0B94D311A1D405A079B
:1008340000D19EE00F221340042B00D199E004352F
:100844006B0100D495E0481CFE2951D1FF20002300
:10085400C0051843E4072043C0BCB946B046F8BD00
:10086400002949D0991B002E72D1002D00D133E10B
:100874004C1E012900D159E1FF2900D14CE121008E
:100884006CE0002900DC81E0002B55D1002A70D0F7
:100894004B1E012900D12BE1FF296DD01B2B50DC0D
:1008A400190020235B1A10009A40C840531E9A4135
:1008B4000243AD188023DB041D4200D1ADE0711C5E
:1008C400FE2EC3D001206A082840924D15400543EE
:1008D4006A0700D08BE01D42B5D1EF0834E0002A4E
:1008E40047D04B1E012966D0FF2945D0190087E760
:1008F400C0B2AB015B0AABE7FE239C46701C03004D
:100904006046184200D092E0002E00D0E7E0002DAF
:1009140000D119E1002A17D08023AF1ADB041F424B
:1009240000D142E14446551B00D187E001201D421D
:10093400DFD10021EF0807E0FF2E1DD01B2900DCCA
:1009440094E031000535EF087B025B0AC8B27FE70B
:10095400FF2B00D1E0E08020C00405431B2900DC0C
:1009640088E0551E44461E00690100D54FE731005A
:100974000435EF08FF29E7D1002F00D166E7802373
:10098400DB033B435B02FF205B0A61E7002958D08D
:10099400991B002E00D089E0002D00D19DE04E1E51
:1009A400012900D1A4E0FF2900D1B6E01B2E00DD0F
:1009B400B8E0310081E0AA1A530100D4AFE09701F6
:1009C400BF09380000F0DCFE3B00053883400126F7
:1009D4001D00811B20200131CD40411A8B40591E3E
:1009E4008B411D432AD000216B0700D1F0E00F2377
:1009F4002B40042B00D022E76B0100D523E7EF083E
:100A0400A2E720235B1A10009A40C840531E9A4163
:100A14000243AD1A6B0100D5FBE66B0700D1D5E0AC
:100A24000F2331002B40042B00D008E7A1E7AF1AB5
:100A34007B014ED4002F00D0EDE6002400200023DB
:100A440006E7FE23711C0B4221D1002E00D081E069
:100A5400002D00D19FE0002A00D1B2E0AB185A016A
:100A640000D4B0E09B0101205B0AF1E68023DB04A3
:100A74001A4316E720242800C840611A8D40290033
:100A84004C1EA141014344461E00551AC2E7FF29EA
:100A940000D1DBE6AF187F087B0705D00F233D1D8F
:100AA4003B40042B00D064E7FF084DE7FF2B34D014
:100AB4001B2937DC8020C004054328002026C840B9
:100AC400711A8D4029004D1EA94101431E008D1845
:100AD400F0E64446571B9EE64446150049E7002DC0
:100AE40046D1002A66D180230024FF20DB03AFE631
:100AF400AA18530113D5074F52081740530744D07F
:100B04000F231340042B40D002213D1D31E7C04682
:100B1400FFFFFFFBFFFFFF7D44464F462CE701210B
:100B2400D70811E705321900D7080DE7571B7B01D9
:100B340037D5BF01BF09380000F022FE3B0005385D
:100B440083404446013643E7002A00D175E7444612
:100B54004F46F9E6002DE0D08023DB03002A17D0AE
:100B64009F4200D20BE7994500D308E74F4606E7BA
:100B74008023DB03002A0BD09F4200D2FFE6994575
:100B840000D3FCE644464F46F9E60221FF08DBE6C3
:100B9400FF203B435CE6002A00D14FE70021D70841
:100BA400D2E644460121FF08CEE6002F00D07BE7C1
:100BB400002443E780234A46DB034446FF201343D3
:100BC40046E60021C0E60021DF08BDE63100D0E69C
:100BD40001206A0100D58BE62A00DFE7F0B546461E
:100BE4004F46D6464502C0B5C30F470098460E1C73
:100BF4006D0A3F0E5BD0FF2F21D08023ED00DB0474
:100C04001D43002399469A467F3F74027300640A89
:100C14001B0EF60F002B20D0FF2B43D08022002088
:100C2400E400D20414437F3B4246FF1A4B46724011
:100C34000F2B00D99DE071499B00CB589F46002D96
:100C44005AD108239946063B74029A467300FF273B
:100C5400640A1B0EF60F002BDED1002C3BD10123BE
:100C640042464946724019430E2918D864488900FF
:100C740041588F465346022B00D1B8E0032B6ED067
:100C840042462C00012B40D100200024C005204303
:100C9400D2071043E0BCBA46B146A846F0BDFF20D7
:100CA4000024F3E7002C20D10223FF3FD8E7002DD6
:100CB40005D104239946033B00279A46A5E728005B
:100CC40000F05EFD7627431F9D4000237F42994636
:100CD4009A463F1A99E7200000F052FD431F9C40BA
:100CE40076235B421B1A00209EE703234A461A43DD
:100CF40091460320FC3397E70C239946093BFF27D1
:100D04009A4682E703282CD0320038007F3000282E
:100D140047DD630704D00F232340042B00D00434A1
:100D2400230103D53800374B80301C40FE28B6DC45
:100D3400A401640AC0B2A9E780240022FF20E403CE
:100D4400A4E78023DB031D4201D01C420BD0802486
:100D5400E4032C4364024246FF20640A96E74646B5
:100D64002C008023DB031C4364023200FF20640A4E
:100D74008CE76D01600185422DD21B230024013FC5
:100D84000126290064006D00002901DB854201D39E
:100D94002D1A3443013B002BF3D16B1E9D412C4390
:100DA400B3E701231B1A1B2B00DD6DE721009E37DF
:100DB400D940BC400B00611E8C412343590704D029
:100DC4000F211940042900D00433590113D49B0185
:100DD40000205C0A5AE71A2301242D1AD0E7981E32
:100DE40043425841404232000024C0B24EE74246DA
:100DF400FF2000244AE70120002447E778CE0108B9
:100E0400B8CE0108FFFFFFF770B542004E024C0058
:100E140045026D0A120EC30F760A240EC90FFF2A6B
:100E240010D0FF2C0CD00120A2420AD1B54208D127
:100E34008B420FD0002A04D12800431E984100E0C1
:100E4400012070BD0120FF2CFBD13543F9D14B406B
:100E54001800F6E70020F4E730B5420044024D02E2
:100E6400C30F4800640A120E6D0A000EC90FFF2A50
:100E740018D0FF280AD0002A1ED100280AD1002D3C
:100E840029D0002C2DD14800013830BD002D25D1AA
:100E9400002A01D1002CF6D08B4219D001205B42EC
:100EA4001843F2E7002C19D1FF28F7D1002D15D1F2
:100EB40000208B42F2D1E8E70028EFD08B42EDD13D
:100EC4008242EBDC04DBAC42E8D80020AC42DCD24A
:100ED40058000138D9E7002CD7D0DFE70220404280
:100EE400D3E78B42DAD1EEE730B5420044024D023B
:100EF400C30F4800640A120E6D0A000EC90FFF2AC0
:100F040017D0FF280AD0002A1BD100280AD1002DAF
:100F14001DD0002C2DD14800013811E0002D0ED138
:100F2400002A01D1002CF6D08B420CD15800013894
:100F340006E0002C03D1FF2805D1002D15D0022096
:100F440030BD002806D101205B421843F8E7002C8D
:100F5400F6D0F8E78B42F6D18242F4DCE6DBAC4211
:100F6400F1D80020AC42EBD2E0E700208B42EAD17A
:100F7400E6E78B42E7D1F2E7F0B54F464646D64660
:100F84004502C0B546000F1C6D0A360EC40F002E74
:100F940000D1CDE0FF2E72D08023ED00DB041D4391
:100FA400002399469A467F3E7B025B0A98467B0063
:100FB4001B0EFF0F002B72D0FF2B00D1A9E07F3B4B
:100FC400F6184B460A2B00DD85E043468022DB0001
:100FD400D2041A434B4690467C400022022B0FDD7C
:100FE400494601238B40A621C9000B4200D072E080
:100FF400902189000B4200D0DAE08821194267D1A0
:10100400280C42462D042D0C4346290012041B0CC7
:10101400120C51435D4342435843AD180B0C5B190A
:101024009A4203D9802252029446604409041A0465
:10103400090C52189501691E8D411B0C920E1B1848
:1010440015439B011D431B0100D5CFE030007F30C9
:10105400002800DCB1E06B070BD00F2332002B40DB
:10106400042B06D004352B0103D5803210006A4BC3
:101074001D40FE2864DCAB015B0AC0B21FE0002DFA
:1010840000D08FE008239946063B9A467B025B0A10
:1010940098467B00FF261B0EFF0F002B8CD1434686
:1010A400002B5CD14A4601331A43914613000A2AA5
:1010B40011DC01227C40022B92DC00200023C005BD
:1010C4001843E4072043E0BCBA46B146A846F0BD45
:1010D4003C00454692465346022B31D0032B11D097
:1010E400012BEAD030008030721C002866DD6B07CB
:1010F400B9D00F232B40042BB4D1B4E70F2A7AD0F4
:101104003C0045468023DB032B435B02FF205B0A44
:10111400D5E74346FF36002B34D14A460233134306
:101124000A2BD8DC7C40002A0AD09946022257E7D1
:10113400002D08D104239946033B00269A4633E741
:10114400FF200023BBE7280000F01AFB7626431F8C
:101154009D400023764299469A46361A24E7404633
:1011640000F00EFB4B46361A763E0A2BB3DC4346A0
:101174000538834098464B4600227C40022B00DD14
:101184002EE73DE703234A461A4313000A2AB5DC37
:1011940001229A40882113007C400322194200D185
:1011A4002EE795E70C239946093BFF269A46FBE672
:1011B40080230024FF20DB0381E7320001231B1A74
:1011C4001B2B00DD79E79E3229009540D9406A1E29
:1011D40095410D436B0704D00F232B40042B00D003
:1011E40004356B0113D50120002368E701236A0845
:1011F4001D40154376E78023DB031D4282D042461F
:101204001A4200D07EE73C00FF20134357E7AB01AE
:1012140000205B0A53E7C046FFFFFFF7F8B54746D7
:10122400CE464B02460080B5C40F4702580A844696
:1012340048007A0A360EBF09000ECD0F9B09FF281D
:101244006DD001214D40311AAC423AD0002900DC66
:101254009CE1002800D19EE0FF2E00D188E080228E
:10126400D20413431B2900DCF6E0013F7A0100D4C9
:1012740079E001277F42BF01BB099846404600F050
:101284007FFA434605388340864200DCCCE0B44F05
:10129400311A1F405A0768D00F221340042B64D020
:1012A40004377B0161D5481CFE2900D081E0FF2072
:1012B4000023C0051843E4072043C0BCB946B04628
:1012C400F8BD002900DC79E1002876D1002B4CD050
:1012D400481E012900D147E1FF2949D01B2871DCB0
:1012E40001001A002020CA40411A8B40591E8B412C
:1012F4001343FF188023DB041F4200D1B8E0711CA4
:10130400FE2ED4D0012297483A407F080740174365
:101314007A0700D096E01F42C5D1FA0855E03100A3
:10132400FF398946002B2CD101214D40AC4200D11C
:10133400B4E0494600294CD0002E00D0F9E0FF214A
:10134400002F00D108E14A1E012900D156E1FF29EE
:1013540000D142E11B2A00DC24E15F1E2C000600C0
:101364007A0100D585E731000437FA08FF292CD12A
:10137400002A9CD08023DB0313435B02FF205B0A1B
:1013840097E7AC4200D1A7E0002922D0002ED6D0A6
:1013940062462C00EEE7002BE7D0481E012936D028
:1013A400FF29E5D001005DE701203B007A0100D46C
:1013B40057E1C0B2BB015B0A7BE7FF2ED8D01B29E3
:1013C40000DC9FE031000537FA0853025B0AC8B21B
:1013D4006FE7FE20711C084254D1002E00D0B1E00A
:1013E400002F00D102E1002B00D1F9E08021FA1A8C
:1013F400C9040A4200D13BE10124DF1B2C40002F29
:1014040049D001200F42D5D10021FA08DDE7FF1AA7
:101414007B0100D4DEE0BD01AD09280000F0B0F985
:101424002B000538834001262022811B0131521AEA
:101434001F009340CF405A1E93411F432BD00021DD
:101444007B07B1D00F233B40042B00D028E77B015E
:1014540000D528E7FA08B8E71A002020CA40411A44
:101464008B40591E8B411343FF1A7B0100D502E7C1
:101474007B0700D10DE10F2331003B40042B00D04A
:101484000EE772E7FA1A9046520156D44346002BEF
:1014940000D0F3E60024002000230AE7494600298F
:1014A4001CD0002E00D002E7FF21002F55D04A1E89
:1014B400012959D0FF2900D190E01B2A00DD91E0D9
:1014C40011003A002025CA40691A8F40791E8F41C5
:1014D40017430600FF180DE7002926D1FE20711CD2
:1014E400084213D1002E00D096E0002F00D1B4E0C2
:1014F400002B75D0FB185A0100D4B2E09B015B0AA3
:10150400FD38D6E68022D2041343EAE6FF2900D14F
:10151400CDE6FA185208530705D00F23171D1340C0
:10152400042B00D021E7D2084FE7002EBCD062463E
:1015340020E72C00FF200023BBE60124DB1B984698
:101544002C409BE6002F75D1002B00D096E0802321
:101554000024FF20DB03ACE62C001F0005E7C04697
:10156400FFFFFFFBFFFFFF7DFB185A0100D48DE056
:101574004A4A5B081A40590700D18CE00F210B40FE
:101584000D39042BCFD00221171DEEE6002900D11E
:101594001FE7821B1100002E00D1D1E68021C9046F
:1015A4000F43D7E639002024D140A21A97407A1E6F
:1015B40097410F432C000600DF1B56E700298DD00E
:1015C400811B002E00D170E71B290BDC8022D20482
:1015D400174376E70121FA08F7E62C006246C7E6CE
:1015E4000021F2E605330100DA08EEE6002B00D113
:1015F40050E70124002162462C40E6E6DA1B530141
:1016040032D592019409200000F0BAF8230005387D
:1016140083402C00012607E7002FDFD0002B17D0D2
:101624008023DB039A4200D2A4E69C4500D3A1E6C2
:1016340062469FE6002B0BD08023DB039A4200D244
:1016440098E69C4500D395E6012462462C4091E639
:101654008023DB03FF2013432BE60020002B00D163
:1016640027E60021DA08B0E62C000121D208ACE616
:10167400002A00D10EE70021D208A6E680236246A4
:101684000124DB03FF2013432C4012E60121DA0876
:101694009BE6310069E60221D20896E6FFFFFF7D52
:1016A40041024200C30F490A0020120E7E2A03DDC4
:1016B4009D2A02DD094A98187047802000040143DE
:1016C400952A07DC9620821AD1404842002BF3D198
:1016D4000800F1E7963A9140F7E7C046FFFFFF7F25
:1016E40070B5002812D0C317C5185D40C40F280078
:1016F40000F046F89E231B1A962B0FDC082838D0DE
:10170400083885406D026D0AD8B202E0002400203A
:101714000025C0052843E407204370BD992B14DC41
:10172400421F95402A001549114055071CD00F252A
:101734002A40042A18D00431CA08490115D59F2328
:101744005202181A550AC0B2E3E7020029001B32FC
:1017540091404A1E91410522121AD5402A000A439B
:10176400064911405507E2D1CA085202550AD8B2B7
:10177400CFE76D026D0A8E30CBE7C046FFFFFFFB5B
:101784001C2101231B04984201D3000C10391B0AAD
:10179400984201D3000A08391B09984201D3000971
:1017A400043902A2105C40187047C04604030202C8
:1017B40001010101000000000000000010B5002933
:1017C40003D1FFF7DDFF203002E00800FFF7D8FF68
:1017D40010BDC046F0B54546DE4657464E46E0B518
:1017E40083B0009201930D000099019A0400002D2A
:1017F40061DB06002F00002A0CDB009C019DBD422A
:101804001AD90020002103B0F0BCBB46B246A94659
:10181400A046F0BD00254C429541BD42F1D800D10F
:10182400AEE001235B4299460BE0009A019B002540
:1018340054429D41BD42E4D8BD4200D19CE0002306
:10184400994629002000FFF7B9FF8046390030008F
:10185400FFF7B4FF43461B1A9846203B00D580E0AF
:10186400210099409A460B002100404681400A001D
:10187400BB422DD82AD05146B61A9F41002900DA1E
:101884009BE00021002001240090019151468C40EE
:10189400019401244546AC4000944446002C1ED1DA
:1018A400009801994B46002BADD003000C00002199
:1018B4005842A141A7E700276642AF41002AB4DBA2
:1018C400009C019DBD429CD8ABD159E0B142D2D914
:1018D40000200021444600900191002CE0D0DC0758
:1018E400A44661465408C4460C435D0814E0BD4256
:1018F40001D1B44212D832003B00121BAB41012685
:1019040092185B410027B6185F4101235B429B4656
:10191400DC446346002B0AD0BD42E8D901235B4274
:101924009B46DC446346B6197F41002BF4D1009AF0
:10193400019B514692197B41002925DB3C003D0067
:10194400CC404146CD40514600292DDB25008D4039
:1019540029004546AC402000121A8B4100920193A5
:101964009EE7424628009A462023210090409B1A75
:10197400D94003000B4377E7B44200D941E75EE75F
:10198400B44200D84DE73CE740462021091A38000C
:101994008840340001004046C4403D000C434146A9
:1019A400CD4051460029D1DA404620212600854009
:1019B400091ACE4029003143CBE7414620240125B2
:1019C400641A00200021E54000900191019560E730
:1019D40010B55E21023000F007F910BD10B54221A8
:1019E400023000F001F910BD10B52A4C602200212C
:1019F40020001AF099FB0421A21DD1772100642252
:101A04000831CA7724490223A16221002C310A70CB
:101A1400463A22862032E285204A06216263204A21
:101A2400A370A2631F4AE2632200403211702200B5
:101A340005394532117022004632137023000D22FD
:101A440049331A702300184A4A331A80174BFF226D
:101A54001978230012065C33012910D1A265144AB7
:101A640014491A801422E1641349E31D21651349C2
:101A7400DA7761652000FFF7ABFF208010BD0121FC
:101A84004942E1640E49A26521650E4A0E491A8055
:101A94006165EFE7800E0020F40120031E0020039F
:101AA4003769940228060A3C0A1E0000D10C002063
:101AB40002750000D5D3D1FFB4CEE7FF253065FF12
:101AC400646464FF016400002141E6FF10B50A4B21
:101AD4000A4C187801F030F923004733187801F0E4
:101AE4001DF923002C331878403402F089FA207849
:101AF40001F054FC10BDC046DE0E0020800E002014
:101B0400010010B560220400002001F0FFFC012355
:101B1400002807D12000FFF75BFF23881B1A5A1EF9
:101B24009341DBB2180010BD10B50400FFF750FF5D
:101B34000123208060222100002001F0FFFC431ECD
:101B44009841C0B210BD70B50C0001280FD8431ED7
:101B54009841802300035B014422C01801F0D6FCA5
:101B6400051E07D04422002120001AF0DDFA0125C9
:101B7400280070BD2000FFF731FF23888342F1D194
:101B8400F6E7000010B50948FFF7BAFF002801D0B6
:101B9400FFF72AFF064C00202100FFF7D4FF00289E
:101BA40003D021000120FFF7CEFF10BD800E0020DE
:101BB4003C0E002070B501250E00A84212D8431E29
:101BC4009841802304035B010800E418FFF706FF33
:101BD4002B00308044223100200001F0AFFC431E72
:101BE4009841C5B2280070BD02000B4830B504000E
:101BF400013989B2A14200D130BD1378050A5D4094
:101C04002B096B40000258401D0368405B0158409B
:101C140080B20132ECE7C046FFFF000070B5244CEF
:101C24000500E378A2781B02134315D1607823786A
:101C34000002184380231B01C018000301F054FE66
:101C44006078237800021843802301304005400A5D
:101C54001B04C01801F048FE617823780902194377
:101C640080231B01C918E378A2781B0213431522B1
:101C740053430903C918280001F0E2FDE378A27870
:101C84001B02134301339BB2C22B03D8A3701B0A5C
:101C9400E37070BD0023A370E370637822781B02A5
:101CA400134301335B055B0D23701B0A6370F0E77C
:101CB40090010020F0B500218025304C89B02D0121
:101CC40021716171A171E1710B0A21706370A942E4
:101CD40003D300232370637032E080231B01C918EF
:101CE4000422090301A801F011FD01283ED1019B42
:101CF40001333BD1657823782D021D432ED0013D5D
:101D0400ADB2802300261B01EF183F03A670E670D6
:101D14000422390001A801F0F9FC012820D1019B1B
:101D240001331DD1A6702570360A2D0AE670657040
:101D34008022637821781B0212010B439342C8D29C
:101D44000021152202A81AF0EFF902236A4602A81C
:101D54001372FFF763FF002009B0F0BD084DD0E710
:101D64000136B6B21537C32ED2D1E1E761782378B4
:101D740009021943013189B2A6E7C0469001002047
:101D8400FF070000F0B589B002F022FD274B5A7915
:101D9400197912020A43997909041143DA7912066E
:101DA4000A432349821A0C78FA21890061438A4242
:101DB40035D3020A5A71020C9A71020E1871DA7143
:101DC400FC2302AF3D0000241A4E029018403870E4
:101DD4000196032C06D8019B0020185E002820DA07
:101DE40000232B710C23F05E00F02BF800F029F88F
:101DF4002872306900F025F800F023F8019B0134C3
:101E04000233E4B2A8730C3601350193062CE0D1F9
:101E1400084B38005E331B783B75FFF7FFFE09B0B3
:101E2400F0BD00F00EF82871DCE7C04690010020F8
:101E3400BF0E0020D80D002010B50A21FEF73EFA8F
:101E440010BD10B50A210530FEF738FA10BD0000A8
:101E5400F8B502F0BDFCFA21414A89001368C31A9F
:101E64008B4249D33F4B404E1060DA7F731DDB7FBA
:101E740015003E4C002B32D10021635EB11DC87F9A
:101E84000138032805D8FEF771F902383B3E0221D8
:101E9400635E2821775E2A20315E8F420BD09F42F9
:101EA40048DA0736F57FD81B521B5043C91BFEF78F
:101EB40005FA4219D2B22E492E480D786B1CDBB2BA
:101EC4000B7042550F2B01D900230B7000231D000A
:101ED400C25C0133AD18ADB2102BF9D12D09280025
:101EE400093080B2FFF7A8FF234B1A68234B1B78F5
:101EF400012B21D15563A572F8BD0421635EC8E7A7
:101F04000621635EC5E76088011C00B2984200DACE
:101F1400191C0B1C0DB20427E15FA0888D4200DA66
:101F2400031C0627E05F1DB2E188854200DA0B1C22
:101F34001BB2AEE70022BEE7C0B2031C0A2800D9D8
:101F44000A230F49DBB2C95C5163A17A002903D18A
:101F5400002801D0323151630A225343A372CBE7E4
:101F6400AC010020880E0020800E0020D80D002037
:101F7400980100209901002014080020D10C0020B1
:101F840000000020012210B51100024803F082FB7A
:101F940010BDC0460004005010B5002201210248C3
:101FA40003F078FB10BDC046000400508023DB051D
:101FB4005A6B002A02D132325A6370470022FBE77F
:101FC4000022024B1A70024B1A807047B2010020A3
:101FD400380E0020F7B502F0FBFBFA21704A00909E
:101FE40013688900C31A8B4200D2B2E06D4B1060B3
:101FF4003622985E6C4A0425002411000027D65F1F
:10200400864200DB0224013DEDB20232002DF5D1FF
:102014001A0038321078FA2292004243886D9042B6
:1020240001D9042214431A006420393212785F4F14
:1020340050430022BE58864201DD082634430C3248
:10204400482AF7D1FA22588F92004243486D9042B1
:1020540001D910221443086900220100544FBE58CC
:10206400B04200D23000B14200D931000C323C2AD7
:10207400F5D11A00FA273D321278BF007A434D4E4B
:10208400824212D8B94208D33C331F78431A6420E1
:102094005843FEF789F8874207D820231C43337836
:1020A400092B1ED80133337006E0002CF7D1424BC4
:1020B40034701C60414B1C70002631003F4C237867
:1020C400FF2B35D1FA223E4B92001B88934231D22A
:1020D4000023237000293DD001223A4B22701A704C
:1020E40028E00026384AA3B21380384A11880B43EB
:1020F40013802C4B31009A8E01925A8E1F8E944677
:10210400330001221000984004420BD0019818417A
:1021140010420BD160461841104005433800184165
:10212400104006430133062BECD1C7E71100F5E755
:10213400002BCFD02278531EDBB2FD2B05D81E49CD
:102144000B68002B0DD1009B0B60002E24D0FFF7F1
:102154002DFFF7BD002DEDD01A4B1970012323700C
:10216400E8E70099CB1A1A490878FA218900414313
:102174008B42EAD3134B19780323012900D1083386
:10218400511C21709A4202D2FFF7FCFEDDE7FFF7F3
:1021940003FFFF232370D8E78023DB055E63D8E7C2
:1021A400B8010020800E0020D80D0020E80D00208A
:1021B400F40D0020B2010020B4010020B001002081
:1021C400340E0020B1010020380E00203A0E002009
:1021D400BE0E002070B5022688B01422002103A888
:1021E40019F0A2FF042101242E4B2F485A6B00251D
:1021F40032435A635A6B32400092009A5A6B0A4334
:102204005A635A6B0A400192019A5A6B7C312243F9
:102214005A635B6B22002340B1400293029B03F09C
:1022240039FAA02000220821C00503F033FAA020C7
:1022340022004021C00503F02DFA002239211A485A
:1022440003F028FA194B03A917480393049405953E
:10225400069503F05FF9C02303A91B0214480393F6
:102264000495059403F056F9A020124B03A9C00568
:1022740004930396059403F04DF9A020482303A981
:10228400C005039304940595069503F043F92A00C9
:102294000321052002F0DCFE052002F003FF08B054
:1022A40070BDC04600100240000400503902000016
:1022B400000800500000211007B50121104B09202F
:1022C4009A6B0A439A6300229B6B0B4001931100A3
:1022D400019B02F0BDFE092002F0E4FE00220A2068
:1022E400110002F0B5FE0A2002F0DCFE00220B20F1
:1022F400110002F0ADFE0B2002F0D4FE07BDC04673
:10230400001002400848094B10B503600023838085
:10231400436183610133036202F0EAFE002801D0C5
:1023240072B6FEE710BDC0463C0A002000300240F1
:10233400B72310B51A481B4C9B00C4501A4B0360BA
:1023440008230371063BC371437200234381C360B6
:10235400037403F0E3F9021E01D072B6FEE7200015
:1023640012490DF0BBFB002801D072B6FEE7200035
:102374000F490DF0DBFB002801D072B6FEE7200008
:102384000C490DF0E4F9002801D072B6FEE72000F4
:102394000DF0F4FB002801D072B6FEE710BDC04674
:1023A4009C040020C0010020005C0040F4000020D8
:1023B40060000020AC00002037B5204B204CE02208
:1023C40023608223D200E26080225B0063600023EA
:1023D4009200A261FA3AA36023616361E36123621C
:1023E4006362A362FF3A236320000833E2626363FB
:1023F40004F036FC051E01D072B6FEE7200001F0A1
:1024040037F901A8019501F055F9019B0D4A934252
:1024140005D00D4A934202D00C4A934203D1FFF7F0
:10242400B1FBFFF747FC0A4B0A4C18785E3400F006
:1024340075FC207800F080FC37BDC04600380040B1
:1024440074090020EF401800BA40180068401800D2
:10245400C70E0020800E0020044B10B51B6883F3C8
:102464000888034B1B68984710BDC0460000FF1F37
:102474000400FF1F70B5072601258EB01822002125
:1024840007A801AC19F050FE14220021200019F015
:102494004BFE134A06A81368B3432B43136012235D
:1024A4000693EE33099300230A9340330B9380235E
:1024B400DB030D9303F010FF002801D072B6FEE792
:1024C4006060A060E060206129002000019604F0B3
:1024D400A5F8002801D072B6FEE70EB070BDC04664
:1024E400002002408021F0B5CF4B4905DA6BA1B042
:1024F4000A43DA63DA6BA0240A4001210392039AA7
:102504005A6BE4050A435A635B6BC84A0B40049355
:10251400049BE368C64D1340E360E168C54B0B437D
:10252400E3602368134023602A6FC34B9A4202D0AE
:1025340023699B0703D400232B67FFF78DFF2369CF
:102544005B0502D40122BD4B1A70BD4B8022196A6F
:1025540052040C001440114228D0BA4A9A60BA4A74
:102564009A60BA4ADA60BA4ADA6080225202196979
:102574001142FCD11A6AB7490A401A628022596989
:1025840092020A435A618022520219691142FCD113
:102594008022596912050A435A61BFF34F8FAE4B2B
:1025A400AE4ADA60BFF34F8FC046FDE702F0F8F899
:1025B400FFF760FF6A6FAA4B9A4227D16C67FFF757
:1025C40009FEA725FFF778FEFFF79CFEFFF7B0FE94
:1025D400FFF7F2FEA34801F04BF8A34CAD0001F065
:1025E400D1FF012002F0FAF8A04B5B5D032B0BD066
:1025F400013C002CF3D1BFF34F8F974B974ADA601D
:10260400BFF34F8FC046FDE7974CE8E7FFF7E2FDC5
:10261400FFF752FEFFF776FE9548964B08270360B6
:1026240082235B00436080231B028360E023DB0082
:10263400C3608023DB028361072304614461C461B6
:10264400046244628462C3620463476304F008FB67
:10265400061E01D072B6FEE713AC00F0A5FBFFF72F
:1026640067FE0C223100200019F05EFD824D834B81
:102674006F612B6080231B062B612B002C331E7093
:1026840080235B012B6307236B632B0001273C33FF
:102694001F70102328002B6490336E60AE60EE60D0
:1026A4002E83AF76EF616E62AE626B64AE64EE64ED
:1026B40002F0AAF8002801D072B6FEE7704B2100A0
:1026C40013932800676002F005FA002801D072B65F
:1026D400FEE76C4B21002800139302F0FBF900285D
:1026E40001D072B6FEE7684B21002800139302F074
:1026F400F1F9071E01D072B6FEE70100102208A806
:1027040019F012FD0CAD0C22390005A819F00CFDCE
:102714001C223900280019F007FD3422390020005A
:1027240019F002FD594E5A4B300033601123736087
:102734005233B760F36037617761B76105F06AFBC4
:10274400002801D072B6FEE7802330005B0108A99F
:10275400089305F081FC002801D072B6FEE7300032
:1027640005F082FB002801D072B6FEE7002330009A
:1027740005A905930693079305F094FD021E01D065
:1027840072B6FEE7602329000C936860A860E860D5
:1027940028616861A861300005F0CCFB002801D0F5
:1027A40072B6FEE780239B011390636180239B0430
:1027B4006060A060E0602061A061E0612062A062CE
:1027C400E062206321003000636205F09FFD071E74
:1027D40001D072B6FEE7300001F098FA1C223900ED
:1027E400280019F0A1FC34223900200019F09CFCC7
:1027F400284E294B30003360E023FF3373607D3B68
:10280400FF3BB760F36037617761B76105F002FBA6
:10281400002801D072B6FEE7300005F025FB021E49
:102824003CD072B6FEE7C04600100240F3FFCFFF73
:102834000070004004001000FEC00000D10C002015
:102844000020024023016745AB89EFCD3B2A1908DC
:102854007F6E5D4CFFFFFFFE00ED00E00400FA0513
:10286400ADDE0000740900200F270000C001002025
:10287400D809002000300140BC0A00200024014097
:10288400000400A8000004480000084C14080020BC
:10289400002C01407C0700200048014060232900EF
:1028A4000C936860A860E86028616861A8613000E2
:1028B40005F040FB002801D072B6FEE780239B019F
:1028C400139021006060A060E0602061A06120633B
:1028D4006361300005F01AFD0190002801D072B642
:1028E400FEE7300001F012FA10220199280019F0D5
:1028F4001BFC0C22019908A819F016FC1C222000CC
:10290400019919F011FC8023604FDB053B607723AC
:102914007B60019B3800BB606323FB60019B3B61D0
:10292400BB6105F077FA002801D072B6FEE7802378
:1029340029005B0138000C9305F08EFB002801D0C0
:1029440072B6FEE7380005F08FFA002801D072B69F
:10295400FEE70023380008A908930A9305F0A2FCB7
:10296400021E01D072B6FEE760232100139360605B
:10297400A0602061380005F0DDFA041E01D072B6B3
:10298400FEE7380001F0C2F9FFF716FD06F02EF954
:1029940021003F4805F082FC2100380005F07EFC50
:1029A4002100300005F07AFC3A4B3B4C187800F0DB
:1029B40061FD01F00DFF394D2C342860962001F0A3
:1029C4000DFF00F037FD06F017F9212001F006FF96
:1029D40006F012F9207801F013FB01F0F9FE8027CC
:1029E4000400FF0501F0F4FE0190031B0F2B31D905
:1029F4002B4E2C4C3078A0283BD003001033DBB294
:102A0400042B08D8F138032803D8FDF7AFFB262898
:102A14002D30012323702378002B03D106F0ECF82A
:102A2400FFF7B0F900F006FDFFF712FAFFF7D2FA4C
:102A34001D4C2378002B0CD01C4B1B78002B21D071
:102A440001F0FEFA01F0C4FE2860FFF7B9FA002392
:102A54002370019C01F096FDC4E70023DAE7F82017
:102A6400000200F089F9D6E7FC20C000F9E71F2036
:102A7400F7E73223FA207B63800001F0AFFEFF23E7
:102A84003370C8E722780A4B1A70DBE7C8070020C6
:102A940014080020C00E0020800E0020CC0C002062
:102AA40010000020BC010020BE010020C80C002042
:102AB400BD01002072B6FEE7034B026810B59A42CE
:102AC40001D100F053FF10BD0038004010B5FFF7EE
:102AD400F3FF10BD034B026810B59A4201D100F018
:102AE4007BFF10BD00380040034B026810B59A42CA
:102AF40001D00BF0BDFF10BD0038004007B56B4698
:102B0400D91D08700A230122014804F021F907BDE8
:102B1400D809002070B50400490045182278022A1B
:102B240006D1607801F05AFE0234AC42F6D170BD91
:102B3400A0200821C00502F0ADFD6078FFF7DEFF9C
:102B4400F2E710B50400A02000220821C00502F01D
:102B5400A1FD2000FFF7D2FF10BD10B50400A02096
:102B640001220821C00502F095FD2000FFF7C6FFF1
:102B740010BD0000F0B587B01422002101A819F09F
:102B8400D3FAA02001221021C00502F083FDA02069
:102B940000261023012701A9C0050193029703967B
:102BA400049602F0B7FC0A2001F018FEA0200423CA
:102BB40032000821C005009302F06CFD8023A0229E
:102BC40040241E4D5B03D2056946936128003A00F8
:102BD4000A2304F0BDF8A0202B6819491A68C0051F
:102BE400A2431A601A680A401A601A68082122432C
:102BF4001A603A0002F04EFD69460A2303222800B7
:102C040004F0BEFAA0221023D20593612B68A02001
:102C14001A68C005A2431A6080221968D2010A43C7
:102C24001A601A6801A914431C60022305960293D2
:102C340002F070FC009807B0F0BDC046D80900202F
:102C4400FFBFFFFF70B50D00884213D8AA2911D821
:102C5400233084B22A20FFF774FF200AFFF77DFF98
:102C6400E0B2FFF77AFF23350020FFF776FFE8B2E2
:102C7400FFF773FF70BD70B505000C00884212D8D1
:102C8400A0235B0099420ED82B20FFF75AFF280A95
:102C9400FFF763FFE8B2FFF760FF200AFFF75DFF6D
:102CA400E0B2FFF75AFF70BD70B50C001D00A928F3
:102CB40019D8A0235B00994215D28118AA2902DDF4
:102CC400AA22121A92B26119994201DD1B1B9DB20C
:102CD400411E511889B2FFF7B5FF631EEB1820009F
:102CE40099B2FFF7C8FF70BD10B5FFF7DDFF2C20C8
:102CF400FFF727FF10BD000070B50500A0200C00F1
:102D040001220821C00502F0C5FC2900A2B2024834
:102D140004F0F8FA70BDC046D809002010B50400CC
:102D2400362063425C41FFF70CFFC0206442204020
:102D3400FFF713FF10BD000010B5064B1B78002BE6
:102D440005D1434258412030FFF7FBFE10BD431E1E
:102D54009841F8E7200B002010B5002806D0102079
:102D6400FFF7EFFE052001F039FD10BD1120FFF73C
:102D7400E8FE7820F7E700000021A02370B5AA221E
:102D840004005B000800FFF7AFFF064D260A300081
:102D9400FFF7E3FE013DE0B2FFF7DFFE002DF6D1C1
:102DA40070BDC04680D40000A02010B5012240218F
:102DB400C00502F06FFC0A2001F010FDA0200022E3
:102DC4004021C00502F066FC642001F007FDA0204C
:102DD40001224021C00502F05DFC782001F0FEFCD8
:102DE400FFF7C8FE084B984207D19A210748FFF71E
:102DF40091FE0123064A137010BD7E210548FFF79A
:102E040089FE0023F6E7C0464C298000F4CE010871
:102E1400200B002028D0010830B50F4B1D7800236B
:102E24009D4202D06A1E0133934000220B480C4994
:102E3400046801321C192C410C804468D2B21C195C
:102E44002C414C8084680C301C192C418C80063138
:102E5400082AEDD130BDC046210B0020380C0020DB
:102E6400060C0020284BF7B583423CD1274B284A57
:102E7400197801238B409C46DBB2147801930C2211
:102E84006346244D4A432E78234F244833422BD1A2
:102E94000388A340BB50BA1847888088A740A04045
:102EA400019B5760334390602B7007224B1C1340E7
:102EB400164AD9001370DA43D2040A4318498A61C6
:102EC400002B04D1FFF7A8FF0122164B1A700E4BFA
:102ED40012491A6D1268D1601968134B8A681A4036
:102EE400042313438B60F7BDBB1803221D680688B7
:102EF4002F002741013AF61BAD19D2B220C302308C
:102F0400002AF3D1D1E7C046BC0A00209E0C002061
:102F1400210B0020050C0020380C0020980C002008
:102F240000040050040C0020E8FFFF7FF0B5CE4BF6
:102F34008DB0019300230A270293CC4BCC481B8805
:102F44005843019B1988FDF72FF9019BC94E9B88B3
:102F540085B230811800C84968430393FDF724F90A
:102F6400019B04005B88C449180068430493FDF77F
:102F74001BF9029B0500581E062808D8FDF70AF91C
:102F8400DC00070121013C0146018C01B601A3B21A
:102F9400BA4ABB4C5C430A21535E802149015B1849
:102FA4008021640A634309015B1811891B135B18B0
:102FB400191C1B0400D5002131833221535E80216A
:102FC40049015B18ADB25D4380237D431B01ED18BD
:102FD4003023D35E2D13ED1800D5AAE0F564029BCF
:102FE4000133DBB20293019B06330193029B082B4E
:102FF400A3D100243500059404940694FA21286989
:10300400049B89001B1804930C22AB5E059A584359
:10301400D2180592FDF752F9069B01341B18E4B24D
:10302400686106930C35062CE8D101F0D1FB954B71
:1030340005001B88944C0793002B0CD0230000211F
:10304400D8331B68914AC31A0B91934209D9E022E1
:10305400200019F069F80023D83407930133256060
:103064000B9300218A4B08910193874B019A039398
:103074000C20315E0B9F8C463169029171690C0002
:103084000991190048310A91002F00D158E1340008
:103094001F000C3423CC23C70A990C3CA1CCA1C13A
:1030A4006146116002999161089D09990135116386
:1030B400E9B208910C3604320C330629D8D1002623
:1030C400079C704B0134A4B2724D1C802B00039FEB
:1030D400083307CF07C3039A0297483283CA83C3CE
:1030E400019B21001868FDF75FF8019B28842100EB
:1030F4009869FDF759F8019B68622100186BFDF788
:1031040053F8029B01360393019BF6B20433A86281
:1031140001932435062ED9D1564C069B31006365A4
:10312400049B0598A365FDF73FF85C3420800DB03F
:10313400F0BD0023F36452E7A3B2504A504C5C4301
:103144000621535E802149015B188021640A634390
:1031540009015B1891881B135B18191C1B0400D50B
:103164000021B1812E21535E802149015B18ADB24B
:103174005D4380237D431B01ED182C23D35E2D1367
:10318400ED1801D435642AE70023336427E7039854
:1031940001F000F8394BF0802A215A5E8021490160
:1031A4005218ADB2554380227D431201AD18282236
:1031B4009B5E2D13ED1801D4756310E70023736330
:1031C4000DE7A3B22D4A2E4C5C430E21535E8021A1
:1031D40049015B188021640A6343090192895B18E1
:1031E4001B139B181A1C1B0400D500220498B284DC
:1031F40000F0D0FF3080F2E6039800F0CBFF019B93
:10320400B080588800F0C6FF7080E8E680201B4A32
:1032140040011E23D15EA3B2802409184B437B4393
:1032240024011B191B139C461C23D15E0B00634411
:10323400D943C9170B403361ABB2114D5D431A2119
:10324400535E6D0A1B186B43128B1B191B139B18BF
:103254001AB21B0403D4330048331A80BFE6330088
:1032640000224833F9E7C046060C00206A75FF1FA8
:10327400B80B0000D80D0020FF0F00003C0E00200A
:10328400330C0000000C0020240B00205FEA000037
:10329400B40B0020D40C002080203E4A400122239D
:1032A400D15EA3B2802409184B437B4324011B192C
:1032B4001B139C462023D15E0B006344D943C917DA
:1032C4000B40F361ABB2344D5D431621535E6D0A7E
:1032D4001B186B43928A1B191B139B181AB21B04ED
:1032E40001D4B2877BE60023B38778E68020294A9D
:1032F40040012623D15EA3B2802409184B437B43AB
:1033040024011B191B139C462423D15EADB20B0070
:103314006344D943C9170B401F49B362694312255B
:10332400535F490A1B184B43128A1B191B139B1822
:103334001AB21B0401D4328651E6002333864EE6CA
:103344000027D85F604501DD604618800A99002790
:10335400C85F604501DA6046088059680298814276
:1033640000DD5860D96C0298814200DAD86499680B
:10337400A14200DD9C60196DA14200DA1C65116850
:1033840002986144116091690918106B91612118C8
:10339400099189E63C0E0020330C0000F8B5011CAD
:1033A400082800D908212048C9B203788B4221D0CB
:1033B400EFF3108472B61D4B1B78002B14D00378E6
:1033C4001B4A8B4217D20025CB1ADBB21668013593
:1033D4009E4016605668EDB29E40566096689E40C8
:1033E40096600C32082DF1D10170FFF715FD002C09
:1033F40000D162B6F8BD01275B1ADBB25D1EAF4097
:10340400002516680135BE191E4116605668EDB2D6
:10341400BE191E4156609668BE191E4196600C3254
:10342400082DEED1E0E7C046210B0020050C00205A
:10343400380C002010B50C4B1A78002A12D0002248
:103444001A70FFF773FD80210848C90102F01CF9C6
:10345400802104000902054802F016F96400044BB7
:103464002043187010BDC046040C00200008005012
:10347400360E0020F7B5FFF791FF1A4F380001F020
:1034840035FD041E2AD1184E01000622300018F022
:103494004BFE21006022154818F046FE2100302220
:1034A400134818F041FE01F093F9124D2100E02277
:1034B4000190280018F038FE019BD8352B600E4B84
:1034C4000E4A1C700E4B31001C700E4B38001C70E1
:1034D4000D4B9A61032201F079FC0400FFF7AAFF67
:1034E4002000FEBDBC0A0020980C0020380C0020EF
:1034F400060C0020240B0020050C00200000F8FF1F
:10350400040C00209E0C00200004005070B5040040
:103514000800C021A518012389018D420AD8064D4F
:103524007F33A9681942FCD1210000F0EFF843422F
:103534005841C3B2180070BD00380040F7B501917E
:10354400C02106008018150089010122884214D880
:1035540016487F3281680C0014401142FAD1002BC6
:1035640005D180277F00AC4209D3002205E030005A
:1035740000F0BAF902220128F3D01000FEBD2B1B83
:103584001A1C9BB2BB4202D980235B001A1C93B263
:103594000093019B009AA119181900F051F9002811
:1035A40002D1009BE418DEE70322E6E7003800407E
:1035B400802170B50022890005000E4802F06AF8E7
:1035C400FA230D4E01220D4930689B0003F0C0FB25
:1035D400041E06D1642301222900306803F0D0FDC3
:1035E4000400802101220348890002F053F82000DE
:1035F40070BDC04600040050B80C002027D101085B
:1036040073B56B46DD1D00230A262B708021002232
:103614001448890002F03EF8FA23134801221349A2
:1036240000689B0003F094FB8021040001220D48F4
:10363400890002F02FF8002C12D12800FFF7B8FF00
:10364400041E0DD12B789B0702D4013E002EDDD140
:1036540001222B780224134202D19B07DC0F544031
:10366400200076BD00040050B80C002026D10108CB
:10367400802110B50C4C0022206089000B4802F018
:1036840009F8FA2301229B000949206803F060FB32
:103694000400802163425C4101220448890001F056
:1036A400F9FFE0B210BDC046B80C00200004005081
:1036B40024D101080022802170B589000260050030
:1036C4000F4801F0E7FFFA230E4E01220E4930683D
:1036D4009B0003F03DFB041E07D1FA2303222900BB
:1036E40030689B0003F04CFD0400802163425C4180
:1036F40001220348890001F0CDFFE0B270BDC0464D
:1037040000040050B80C002025D101080323F7B5AC
:1037140001AC23700B0C49BA61808021060089003A
:10372400104815000022637001F0B4FFFA230E4F15
:103734002100042238689B0003F00AFB041E06D112
:1037440031000A4B3868AAB203F01AFD0400802144
:1037540063425C4101220348890001F09BFFE0B20F
:10376400FEBDC04600040050B80C00201027000025
:10377400F0B5284D13002A6885B05D321478002214
:10378400012C41D1244F254C3B60254B20601A70FD
:10379400019303232348009403AC016023700B0CB2
:1037A40049BA61808021204E2048890063703260CC
:1037B40001F070FFFA232100042228689B0003F023
:1037C400C7FA041E14D133683A68D21A80235B0105
:1037D4009A421CD81300164928680B60009B92B2C9
:1037E400196803F0F3FE041E0BD0286803F0A0FF51
:1037F400802101220D48890001F04CFF0223019A27
:10380400137063425C41E2B2100005B0F0BD1A00CF
:10381400E1E7C046B80C0020AC0C0020B40C00203A
:10382400A80C0020B00C0020A40C002000040050C0
:10383400A00C0020014B1878C0B27047A80C0020DF
:10384400F0B585B00D0017000190FFF7D9FE041EF6
:1038540040D10223802103AE0200337020482B0C98
:1038640089006DBA7370758001F014FFFA231D4D41
:103874000422310028689B0003F06AFA041E23D155
:10388400FA233A00019928689B0003F061FA041EA8
:103894001AD18021012296251148890001F0FAFEEF
:1038A4006D00012000F09AFF02ABDE1C3000FFF730
:1038B4007FFE041E08D13278012314001C401A42F2
:1038C40002D0013D002DECD1802101220448890061
:1038D40001F0E0FE63425C41E0B205B0F0BDC046D9
:1038E40000040050B80C002073B50500FFF788FEF3
:1038F400041E32D12023802101AE02003370194806
:103904002B0C89006DBA7370758001F0C3FEFA2325
:1039140015480422310000689B0003F019FA802145
:10392400040001220F48890001F0B4FE002C14D1D8
:10393400FA25AD00012000F051FF6B46DE1C30007B
:10394400FFF736FE041E08D13278012314001C4010
:103954001A4202D0013D002DECD163425C41E0B239
:1039640076BDC04600040050B80C0020144A10B5BF
:10397400144C136821685B181360134A126893424D
:103984001AD28021D21A49018A4213D81100216027
:103994000E4992B20968C91803F018FE002808D02D
:1039A40002220B4B1A70013A80210A48890001F067
:1039B40071FE10BD0A00EAE70122054B1A70F3E715
:1039C400A40C0020A00C0020AC0C0020B40C00209F
:1039D400A80C0020000400500222802110B5044BE2
:1039E40004481A708900013A01F054FE10BDC04623
:1039F400A80C00200004005001210A4B82B01A6C6C
:103A04000A431A641A6C0A4080210092009ADA6B05
:103A140049050A43DA63DB6B0B400193019B02B057
:103A24007047C0460010024070B52024050090B0D5
:103A34001422002103A818F077FB2200002108A813
:103A440018F072FB214B2A689A423DD108A80894C9
:103A540002F098FE002801D0FFF72CF880211C4BBF
:103A640049031A6C00260A431A641A6C19480A405E
:103A740002210192019A5A6B0A435A635B6B0596C1
:103A84000B400293029B062303A90393033B049375
:103A940001F040FD104C114B2000236005236360AE
:103AA4007B332361803363618023DB00A3612023A4
:103AB400A660E660E361266201F0BEFBB04201D07D
:103AC400FEF7F8FF2C65A56210B070BD002401401C
:103AD4000010024000040050600A00200800024068
:103AE400084B026882B09A4209D18021064B4901F1
:103AF4009A6B0A439A639B6B0B400193019B02B040
:103B04007047C0460030024000100240F0B5050086
:103B140093B01422002105A818F006FB20220021EE
:103B24000AA818F001FB2B68544A93424BD1042392
:103B34000AA80A9302F026FE002801D0FEF7BAFF75
:103B4400802701214E4B7F011A6CA0203A431A644E
:103B54001A6C00263A400192019A5A6B02240A43D5
:103B64005A635B6BC0050B400293029B242305A997
:103B74000593069408940796099601F0CBFCA020BF
:103B84001023C00505A9059306940796089609967F
:103B940001F0C0FC3B4C3C4B2000236011236360CC
:103BA400013BA3607033E66023616661A661E66150
:103BB400276201F041FBB04201D0FEF77BFF6C6548
:103BC400A56213B0F0BD314A9342FAD180212C4B47
:103BD400C901DA6B2E480A43DA63DA6B0A400392AE
:103BE400039A0222596B114359635B6B05A9134075
:103BF4000493049BE0235B000593BD3BFF3B0692CB
:103C04000892099301F086FC224C234B8022236006
:103C1400122363600023A360E3606361A361E36133
:103C2400802320009B012261236201F005FB002810
:103C340001D0FEF73FFF194BAC65A562184C8022FA
:103C4400236013236360033BA36000232000E3602D
:103C540022616361A361E361236201F0EDFA00284C
:103C640001D0FEF727FF002201211A206C65A5620E
:103C740001F0EEF91A2001F015FAA2E70030014034
:103C840000100240180900201C00024000380040C7
:103C940000040050BC0800203000024044000240F0
:103CA400600800200368164A84B093420BD1802137
:103CB400144B09011A6C0A431A641B6C0B400193E0
:103CC400019B04B070478022D205934209D101219F
:103CD4000C4BDA6B0A43DA63DB6B0B400293029BF7
:103CE400EFE7094A9342ECD18021064BC9021A6CD2
:103CF4000A431A641B6C0B400393039BE1E7C04621
:103D0400002C0140001002400048014010B504009E
:103D140088B01422002103A818F006FA23681E4A6A
:103D2400934215D101211D4B5A6B0A435A635B6BB5
:103D34000B400093009B80231B02039302230493F4
:103D4400A02003A9C005079301F0E4FB08B010BD4F
:103D54008022D20593420DD10123104A516B19439D
:103D64005163526B03931A400192DB180493019A36
:103D74000133E5E70A4A9342E8D10121074B5A6B24
:103D84000A435A635B6B0B400293029B80230393A9
:103D94007E3B04930333D3E7002C01400010024020
:103DA4000048014010B504008AB02022002102A876
:103DB40018F0BAF9104B22689A421AD1082302A8C3
:103DC400029302F0DFFC002801D0FEF773FE80218D
:103DD4000A4B8901DA6B08200A43DA630022DB6BA1
:103DE4000B4001931100019B01F032F9082001F00E
:103DF40059F90AB010BDC046005C004000100240F2
:103E0400FEE7000080210B4B4905DA6B82B00A43C0
:103E1400DA63DB6B084A0B400193019B074B5A673B
:103E2400BFF34F8F064B074ADA60BFF34F8FC0468C
:103E3400FDE7C04600100240ADDE00000070004007
:103E440000ED00E00400FA057047704770B500F01B
:103E5400B3FC124D2B78012B1ED100F0B9FC0400E9
:103E6400A0200221C00501F00FFC0D4A1368E31ADB
:103E740001280ED10B498B4203D902210A4B197038
:103E840003E0322B01D9084B1870002314602B7007
:103E940002E006498B42F0D870BDC046C00C002039
:103EA400BC0C0020EE020000BE010020E204000071
:103EB40010B5094C2378002B09D100F089FC074A7E
:103EC4001368C31A322B02D9012310602370022015
:103ED40001F0E8FB10BDC046C00C0020BC0C002063
:103EE400802010B5400001F0DDFB10BD10B5024884
:103EF40001F08AFC10BDC0469C04002010B50248A5
:103F040001F0B4FA10BDC046600A002010B50348A1
:103F140001F0ACFA024801F0A9FA10BD180900201A
:103F2400BC08002010B5024801F0A0FA10BDC0463C
:103F34006008002010B5024803F080FD10BDC046A3
:103F4400740900200120704710B518F055F91623A4
:103F540003600120404210BD10B518F04DF916233E
:103F64000360FEE770B50E0014000025A54201DBD6
:103F7400200070BD00E000BF70550135F6E770B554
:103F84000E0014000025A54201DB200070BD705D09
:103F940000E000BF0135F6E701204042704780236E
:103FA4009B0100204B607047012070470020704740
:103FB4000B490C4A0300521A0B4910B50868002833
:103FC40001D10A480860C318934206D918F014F9BD
:103FD4000C2303600120404210BD0B60FCE7C04687
:103FE4000004000000600020C40C00209056002053
:103FF4008022024B12059A607047C04600ED00E033
:10400400064B1A68031C0A2803D20A23DBB2536343
:104014007047C1B26429F9D96423F7E77C0700200B
:1040240001200022044B10B51870044B1B685A631E
:10403400FEF792FE10BDC046C80C00207C0700208D
:1040440010B50020FEF788FE034B1878FFF7D8FF61
:104054000022024B1A7010BDAC0E0020C80C0020C8
:1040640070B5040008000E00FDF7E6FE05006328A5
:1040740016DDFDF7E1FEFDF7DFFE3030208028007D
:10408400FDF7DAFE0A21FCF7FFF9303161802800E0
:104094000A21FCF7F9F900233031A180E3800DE017
:1040A40009280CDDFDF7C8FE303020800A212800E5
:1040B400FCF7EAF9002330316180A38070BD03006E
:1040C4000A21303323802E234942414363808919D6
:1040D400E1E7F8B505000F1E24DB0800FDF7ACFE90
:1040E4006426FDF7A9FE76424643F6190400300023
:1040F400FDF7A2FE02000A20404250438019002C22
:1041040004D03034A4B2303291B203E02024210030
:10411400002AF8D1303080B200232C806980A88036
:10412400EB80F8BD20242D212000F5E7F8B504002C
:1041340008000F006426FDF77FFEFDF77DFE764242
:104144004643F61905003000FDF776FE0A21494280
:10415400414320238919002D01D03035ABB223808F
:104164002E23A3800023303030316080E18023810E
:10417400F8BD0300002010B51400834209DB53434B
:104184001800FCF79BF8031C80B2A04200D9231C42
:1041940098B210BD0300F0B5643B444A9BB20400DE
:1041A40089B0934200D97EE00023414A0021FCF704
:1041B400EFF9404A121BD317FCF7CAF9030B0905A0
:1041C40019433B4A00230005FCF79EF980239B0317
:1041D400984264DD01264010374BC418E7172200CB
:1041E4003B0020003900FCF7D3F9CB171B031B0B52
:1041F4000093002302900391019300980199029A7D
:10420400039B12184B4111001B030D0D1D4322008B
:104214003B002800E917FCF7BBF90591CB170021F7
:104224001B030490180B049A059B801859410B0337
:10423400000D03211843FCF741F885226D10641B1F
:1042440004191E480023704300195200C117FCF7DB
:104254009FF900230791C917090306900A0B0698D2
:10426400079912184B4111000A0D80211B031A43B0
:10427400134B0020D218D3174900FCF745F9114B12
:10428400C0180A234343D8170003000BC0180015B5
:1042940009B0F0BD4000013E9842FBDB9CE780235F
:1042A40000261B03F8E70848F2E7C046B40B0000F9
:1042B40010270000FF0F00000000F0FF99110B0011
:1042C400BD0D00009A99EDEE18FCFFFFF7B51E0036
:1042D4000023040017003380994213D0954D2A78A7
:1042E4000192022A10D12869EE68361A8E4200D94A
:1042F4000E00143032002100281817F0B2FF2B6989
:104304009B192B610020FEBD00780F2811D8FBF704
:1043140037FF250034002C00F9FF450048004D000C
:104324005C006E00A0008000BB00CE004100D40001
:10433400E800F22800D1E3E0E4D8F02800D1D4E08A
:10434400F128DFD17C4B7D4A1A67BFF34F8F7C4B3A
:104354007C4ADA60BFF34F8FC046FDE738007A49E4
:1043640017F077FF20233380CCE70C242200774911
:10437400380017F076FF3480C4E70322380074490C
:1043840017F06FFF734B1B78012B01D105337B7042
:104394000323E8E76E4944242200E9E764246E49D4
:1043A400FAE70129AED160246C49F5E70229A9D9BD
:1043B40060788A1E8318602BA4D8684BA11CC0188F
:1043C40017F04FFFFDF782FB9CE702299AD163782F
:1043D4006349002BDFD0012B03D1F022614B1A700B
:1043E40090E7022B00D08DE7F1225E4BF7E702291C
:1043F40000D887E760788A1E8318442B05D8584B69
:10440400A11CC01817F02DFF7CE74630401AC0B23B
:1044140079E7019B002B1AD1092918D101332B709C
:1044240000F0D6F904226860611C4F4817F019FFA8
:1044340004224E48611D17F014FF8023EA685B00D4
:104444009A4200D85EE780235B00EB605AE70920BC
:10445400DCE7019B002BFAD10929F8D102332B7038
:1044640000F0B6F904226860611C3F4817F0F9FEB9
:1044740004223E48611D17F0F4FE019B019A2B6152
:104484002B00FF335A75D8E7019B002BDFD1092994
:10449400DDD103332B7000F09BF904226860611CAA
:1044A400314817F0DEFE04223048611DAAE70229D4
:1044B40000D027E72E4B627891E7052900D021E749
:1044C4002379E2781B021343A27861782948120207
:1044D4000A4301880A40284902800A8813400B8055
:1044E40010E782242549640056E7134A1367BFF393
:1044F4004F8F134B134ADA60BFF34F8FC046FDE76B
:10450400062900D0FEE66378552B00D0FAE6A3789E
:10451400AA2B00D0F6E6E378552B00D0F2E62379F7
:10452400AA2B00D0EEE6164B1A78002A00D0E9E652
:10453400627954E7E40E002000700040FEC00000E1
:1045440000ED00E00400FA0568D101085075FF1F72
:10455400C0000008D10C0020D80D0020800E0020DF
:104564003C0E002011000020EC0E0020F00E002074
:1045740010000020380E00203A0E0020D40C002039
:10458400E00E0020F8B5554C2578002D00D17AE0D6
:10459400534B9A68802317001F401A4238D1022DCA
:1045A40037D0032D67D0012D0ED14E4EE268300076
:1045B400A168FFF7ABF80135012836D1E168300076
:1045C40089B20BF041F9277000F002F96368C01A50
:1045D400454B984201D900232370444D2878FF2885
:1045E40016D02378002B13D10300F03B012B0DD8F8
:1045F400F138434258413B4CC0B22100FDF7A3FAC5
:10460400002803D1442120000BF01EF9FF232B7056
:10461400F8BD2369FF2BFBD9E2683248A16892B246
:10462400FFF70EF9002800D00125002301212D48B1
:10463400237025750BF008F9C6E7A068FFF754F955
:10464400012812D18022A36852019B18A360E36859
:104654001A00B34200DD32009B1AE360E368002BCA
:104664000DDD002DE9D10235DFE70A20013D00F020
:10467400B5F8EDB2F2E7802605257601EEE76B4248
:104684005D410135D1E71A4D28780028A5D00138BD
:10469400062808D8FBF76AFD040A0E11161B1E0033
:1046A4001448FDF72DFA00232B7096E71148FDF707
:1046B4003BFAF8E7FDF798F9F5E700200E49FDF716
:1046C40042FAF0E700200C49FDF774FAEBE7012009
:1046D4000949F4E701200849F6E7C046E40E002042
:1046E40000380040F80E002088130000110000205C
:1046F400E00E0020800E00203C0E00200D48854670
:10470400FFF776FC002103E00B4B5B584350043168
:104714000A480B4B42189A42F6D30A4A02E0002395
:1047240013600432084B9A42F9D317F06BFDFDF77E
:10473400D9FEFEE7006000207CFE01080000002096
:10474400740100207401002090560020FEE7000050
:1047540070B5104B05001978002901D1012070BDF6
:10476400FA208000FBF720FD0B4C01002068FBF7CA
:104774001BFD00F0A3FC041EF0D1032DEED80200B3
:1047840001202900404200F063FC044B20001D601E
:10479400E5E7C046120000200C00002014000020B1
:1047A40010B50320FFF7D4FF041E03D1FFF724F94B
:1047B400200010BD0124FBE7034A044B11681B7859
:1047C4005B1813607047C046FC0F002012000020E5
:1047D400014B18687047C046FC0F002070B50400F8
:1047E400FFF7F6FF0500631C02D0044B1B78E418A6
:1047F400FFF7EEFF401BA042FAD370BD1200002069
:1048040080684007C00F70470023F0B585B00400EE
:104814000393984200D1EFE0856D9D4205D1FFF7E7
:1048240003F923005433E5651D70802325685B0577
:10483400AA681A4200D1A7E00022AB680192DB000B
:1048440008D410230126A26D01961343A365E36DDA
:104854003343E3652800FFF7D3FF1022A36D134011
:10486400034300D0CBE0A26D674B20691A400633A6
:10487400FF331343A365AB68DB0761D4276BE1689F
:104884007B1E9F41A368A27E0B43217E3F038903C5
:104894000B43617EC9030B4351030B439C46002821
:1048A40000DB85E041004908230066462C331B7871
:1048B4005B0033433B430B43611CC97F012905D192
:1048C400002A00D077E0802252021343626A002A51
:1048D40005D0E02149000A40A16A0A431343EA686B
:1048E4004A490A401343EB60230062683C33E16C9D
:1048F4001B78970FBF079C463943012B08D1236CC3
:10490400666C33430B43A16C0B4361463B43194331
:104914002B693F4F3B400B4380212B6153005B08C5
:10492400C9058B420CD080231B069A4208D0394912
:10493400394F0B683B40F027BF033A4013430B60E9
:10494400072170276B69626B8B4313436B61696941
:10495400A36BB9431B010B436B61002833D11023B4
:10496400A96A5B420B43AB6207216B690B409A4215
:1049740038D10023E365A26D03339A43023B13430A
:10498400A365019805B0F0BDAA6824490A40134301
:10499400AB60234B23491868FBF706FC40000390E7
:1049A400039B002B00D147E7039B013B0393F7E7ED
:1049B4008021890378E72022A76D3A43A265E26D3E
:1049C4001143E16582E780239B039842CCD11C21EB
:1049D400AB6AE369013B9B000B402C3999400B0007
:1049E400216EBFE71223A26D9A43023B1343A365D2
:1049F4000123E26D1343E36501230193C1E7A36D32
:104A04001A43A265F8E7C046FDFEFFFF0102DEFF80
:104A140002FCFF1F08270140FFFFC3FFE8FFFF6FF1
:104A24000C000020400D0300704710B5806AFFF7AA
:104A3400FBFF10BD70474023806A10B5826D13439D
:104A440083650423C26D1343C365FFF7F3FF10BDF1
:104A5400502370B5846AA26D1A422DD1A26DB13370
:104A6400FF331343A365C02325681B01EA681A4278
:104A740015D1A37E002B12D12B681B070FD528005C
:104A8400FFF7BEFE00280ED10C226B6893436B60C7
:104A9400A26D0F4B1A400433FF331343A365200068
:104AA400FEF7E0F970BD2023A26D1343A365012333
:104AB400E26D1343E365F2E7A36DDB0603D5200043
:104AC400FFF7B8FFEEE7236D5B6B9847EAE7C04654
:104AD400FEFEFFFF0023F0B585B0039303000091B1
:104AE40054331A7804000220012A4DD00122276988
:104AF4001A7025682800FFF783FE002800D0F9E02B
:104B0400009B04225B6880219C4697436246009B7D
:104B140009061B68022A00D1C7E05A02520A8F42D2
:104B240034D1A96A0A43AA62009A68699268190290
:104B3400734E0A403240884302436A61002B1FDAF5
:104B4400C020704A70491568000428408B4200D088
:104B54009BE0802109040D4212D113686B4D2B4058
:104B6400034319436A4B116018686A49FBF71CFB3D
:104B74000C23434301330393039B002B00D081E0B8
:104B8400002000235434237005B0F0BD1F21674674
:104B94000F401039B940CE430196266E8E43310042
:104BA400002A12D1980E1F321040B84062460843C2
:104BB4009208E169013220668A42B5D8A96A01984F
:104BC4009A00120FBA400140ACE701221342ECD123
:104BD400921813422CD1042633422BD11A072BD41A
:104BE400DA062BD49A062BD45A062BD41A062BD4C5
:104BF400DA052BD49A052BD45A052BD41A052BD4B9
:104C0400DA042BD49A042BD45A042BD41A042BD4AC
:104C1400DA032BD49A032BD45A032BD41A032BD4A0
:104C2400DA022BD49A022BD45A02BED51620BCE742
:104C34000120BAE71000B8E70320B6E70420B4E780
:104C44000520B2E70620B0E70720AEE70820ACE76E
:104C54000920AAE70A20A8E70B20A6E70C20A4E76E
:104C64000D20A2E70E20A0E70F209EE710209CE76E
:104C740011209AE7122098E7132096E7142094E76E
:104C8400152092E7039B013B75E723498B4200D033
:104C940076E78021C9030D4200D071E713681B4DEC
:104CA4002B400343194311606AE78F4204D1AA6A77
:104CB4005902490A8A43AA62002B00DB60E71149C2
:104CC40011480A68834208D18023DB030868134033
:104CD4000E4A024013430B6052E70F48834200D050
:104CE4004EE7802000040B680240084803401A4342
:104CF4000A6045E72023A26D01201343A36540E722
:104D040000FFFF7F08270140000200A4FFFF3FFFD0
:104D14000C000020400D0300000400A80023F7B598
:104D240002680193916801330400194201D0002004
:104D3400FEBD90682049084208D01022A16D0A43A4
:104D4400A265E26D13430120E365F1E791681B4F0F
:104D540039400B4393601A4B1B681B021DD4637EBE
:104D6400012BE4D0FFF734FD012506002268136807
:104D74002B42DCD193682B4203D193683B402B43F5
:104D84009360FFF725FD801B0228EFD91023A26D45
:104D94001343A365E26D0123D4E70A4B0A4918685B
:104DA400FBF702FA01300190019B002BD7D0019B45
:104DB400013B0193F8E7C04617000080E8FFFF7F3E
:104DC400082701400C000020400D0300F7B50568DA
:104DD400040028000E000192FFF712FD02230028B0
:104DE4003FD1270054373A78012A3AD0013B3B702F
:104DF400EA681A420CD1AA681A4205D0AA681A4B6A
:104E04001A4002231343AB600123EA681343EB60A7
:104E14002000FFF783FF031E23D1A16D134A114025
:104E2400802252000A43A265E065114A206D216880
:104E3400C262104A0263104A42631C220A603B7039
:104E44004A68103313434B603200019B403100F039
:104E54004DFA03002068044A8168114004220A4381
:104E640082601800FEBDC046E8FFFF7FFEF0FFFF32
:104E7400554A00082F4A00083B4A000801220368EB
:104E840070B5040098689968114201D1002070BD82
:104E940002210842FAD105209D680540012D1AD14E
:104EA4009A68114802401143032299601A60FFF77F
:104EB4008FFC060023689B682B42E7D0FFF788FC31
:104EC400801B0228F6D91023A26D1343A365E36D5A
:104ED4002B43E36506E01023A16D0B43A365E36D4B
:104EE4001A43E2650120D2E7E8FFFF7FF0B5002313
:104EF4000500022285B0029354352B7804000092F9
:104F0400012B3ED001262E70FFF7B8FF23680090D6
:104F140099680A003240314206D01023A26D13432F
:104F2400A36500232B702CE0A06D4449082608409B
:104F34000631FF310143A165D86841490840019019
:104F4400D96840480140D960AE2189028C463E4868
:104F5400802799683F060140394399609968002980
:104F640012DA02990131029102996145F6D31223B2
:104F7400A26D9A43023B1343A36500232B700123C4
:104F84000093009805B0F0BD19007F27B43109687B
:104F9400013E394001315218002ED9D199680136A9
:104FA40001403143996080211F690432D208C90548
:104FB4008F421CD31E007F27B4363168B943114396
:104FC400022231609968012601400A439A60FFF782
:104FD400FFFB070023689A6832421ED1DA68019900
:104FE4000A43DA600322A36D9343334398E71749D6
:104FF4000F68F02189033940E0277F03B942D9D3F0
:10500400890C03398E400396039949080391039947
:105014000029CFD003990139F8E7FFF7D9FBC01B6A
:105024000228D7D923689B683342D3D01023A26DBA
:105034001343A365E36D3343E365A0E7FDFEFFFF80
:1050440003800000FC7FFFFFE8FFFF7F082701408B
:1050540010B5FF2403220B0021000240D20091402E
:105064009B012340C943934000280ADBC0240B4A18
:10507400800880008018A40002590A401343035199
:1050840010BD0F2210400838054A8008800080189F
:10509400C26911401943C161F2E7C04600E100E072
:1050A40000ED00E0002805DB1F2318401E3B834071
:1050B400014A13607047C04600E100E08022431EAD
:1050C4005204012093420DD2C021074A074853607D
:1050D400036A09061B021B0A0B4303620020072311
:1050E400906013607047C04610E000E000ED00E0FF
:1050F40010B5041E01D1012010BD437FDAB2002B8C
:1051040002D10277FEF7ECFC022363772379002BAC
:105114001CD118212368124A5A619A688A439A60FA
:1051240062792368002A19D1013A60211A619A68C8
:1051340000208A4361690A4380219A609A688A43FD
:10514400A1690A439A6001236377D5E72000E268E6
:10515400A16800F007F80028E2D0CCE72269E4E770
:10516400B71DC10430B5012504001E2328002942BF
:1051740002D130BD013B21D30800D8402842F9D0E8
:10518400102A17D0102A07D8002A0AD00120082A8A
:10519400EFD10F2BEDD804E00120182AE9D1062B1A
:1051A400E7D820684161182183688B4313438360E7
:1051B4000020DEE70120072BF3D9DAE70120102ACB
:1051C400E0D1D6E7F0B5846CC56C6560046D002C45
:1051D40002D0446D856D65601C24056C084E254025
:1051E4001B3CAC4077683C4374600468636083682C
:1051F400102B02D1A260E160F0BDA160E260FBE788
:105204000000024010B5040000681421C0B2083840
:10521400FAF7CAFF236C064A9B089B189B00636439
:10522400044BA3641C2318401B3B8340E36410BD60
:105234000082001080080240F8B504000120002C10
:1052440045D02568254B1421E818FAF7ADFF022351
:105254008000A61D2064F3772B68214AA7681340B9
:105264002B60E36821693B430B4361692A680B4364
:10527400A16920000B43E1690B43216A0B431343EB
:105284002B60FFF7BFFF8023DB019F4201D1002386
:1052940063606268616CD3B20B60E06CA16C013A2C
:1052A4004860032A14D80F4A0F4899180122013B79
:1052B4009A40A265130000228900216560650A6096
:1052C400436000200123E0630534F377E077F8BD01
:1052D400002323656365A365F3E7C046F8FFFDBFBC
:1052E4000F80FFFF3F82001040090240F7B5461DC2
:1052F4000193F47F05000220012C36D00138F077A9
:10530400AC1DE07F022784466346C0B2009038009B
:10531400012B28D10020E7772C68E8632068009BE4
:1053240098432060019B2800FFF74CFF2B6B002B58
:105334001CD00E232268134323606B6C1A68D203BB
:1053440004D58022196852000A431A602B6D002B81
:1053540004D08022196852000A431A6001230020F5
:105364002268134323600023F377FEBD04222368DD
:105374009343236022680A23DDE70000F0B5002888
:1053840008D0841DE37F411D022B05D00423C36391
:105394000023CB770120F0BD0E250268466C13680C
:1053A400AB4313603368104D2B4033600123166800
:1053B4009E431660026C1B331A401B3B93400B4EFA
:1053C40077683B437360C26C836C5A60036D002B37
:1053D40005D01A682A401A60436D826D5A60012311
:1053E4000020E377C877D6E7FFFEFFFF0000024006
:1053F400F8B50123411DCB77841DE27F022A03D037
:105404000422C2631800F8BD0E2602681568B5436D
:1054140015601568466C9D4315603268114D2A402D
:105424003260026C104E15001C221540AB407768A8
:105434003B437360C26C836C5A60036D002B06D0CF
:105444001A68084D2A401A60436D826D5A60012320
:10545400E3770023CB77836B002B00D098470020A1
:10546400D1E7C046FFFEFFFF00000240F8B51C2450
:105474000427016C264A21403C008C4016680368CE
:105484001D6826420FD03D420DD01968890602D40A
:105494001968B943196053681C43036B5460002BAB
:1054A4001BD0984719E002273C008C40264215D0B7
:1054B4003D4213D01968890606D40A251968A94300
:1054C40019600121831DD97753681C43546000225D
:1054D400431DDA77C36A9342E3D1F8BD0824270059
:1054E4008F403E42F9D02542F7D00E251C68AC43CC
:1054F4001C6001231D008D40290054682143516024
:10550400821DC363D3770022431DDA77436BE2E73E
:105514000000024000239C46F0B585B00B68644649
:105524001A00E24001D105B0F0BD62460126964062
:105534001A0032400192334200D184E04F681023B4
:105544003D009D430395022D14D16346DA08920071
:105554008218136A07241D0063461C400F23A4000D
:10556400A3409D4302950F250B692B40A340029C49
:105574002343136263465A00032393400468DD43C4
:105584009C4303233B4093400295039D2343013DE9
:105594000360012D5AD9032F55D0C468029B1C40C7
:1055A4008B6893402343C36080235B051F424AD02A
:1055B40063469A082D4B9200D218032463461C407C
:1055C4000F23E400A340A026156EF6059D43002397
:1055D400B04210D0264E0133B0420CD0254E0133D8
:1055E400B04208D0244E0133B04204D0234BC31838
:1055F4005E1EB3410533A3402B431366204B019A2F
:10560400DD6F019CD2432C43FE0301D42C001440D3
:10561400DC671C4C019DE36F1D43BE0301D41340A2
:105624001D00124BE5671D68019C2C43FE0201D44A
:105634002C0014401C605C68019D2543BF0201D40A
:10564400144025005D6001239C4467E78468029B45
:1056540065461C40CB689340234383603B09AB40C1
:105664004468B4432343436097E7C04600180240AC
:105674000004005000080050000C005000ECFFAF84
:10568400041802400818024000690840431E98416B
:10569400C0B27047002A01D0816170478162FCE783
:1056A4007047704770B5084D0400EB68184202D08B
:1056B400E860FFF7F5FF2B69234203D020002C613B
:1056C400FFF7EFFF70BDC046001802400A2382B006
:1056D4000193019B002B07D1054BC000C018006843
:1056E4008001800D02B07047019B013BF0E7C0468A
:1056F400009800400A2382B00193019B002B07D13C
:10570400054BC000C01840688001800D02B070478E
:10571400019B013BF0E7C0460098004073B50400CC
:105724000120002C2FD0244D635DDAB2002B05D16B
:10573400A5239B002000E254FEF734FB03236355AA
:10574400206802F049FE0023220019000126207976
:105754001432984218D10021220008005532FF3239
:105764008B421BD16B46227C1A70E3686168A26885
:10577400206802F039FE0023637401336355237BF0
:10578400012B15D0002076BD137001335670D170F3
:10579400116151619161DBB22832DAE71170013194
:1057A4005070D070106150619061C9B22832D7E74F
:1057B400200000F07CFDE5E79502000070B5A5250A
:1057C400AD00435D04000220012B09D00123635581
:1057D400206802F0F9FD206803F02CF800206055E1
:1057E40070BD7047704770B5A525AD00435D0400DA
:1057F4000220012B07D0012363552068617403F054
:1058040013F80020605570BDF0B5040087B000683F
:1058140003F017F8802580232D021B02054018424F
:1058240000D1A9E3802226681202736C134201D1CD
:1058340007B0F0BD0F22736C1A4000920F2213427E
:1058440000D07EE0190001321140134221D13368A7
:10585400D44A200013408022120213433360237D74
:10586400D14ADB009B181B68A26A9B019B0D236332
:10587400D318A3620AF079F8637C002BD2D0E26AD1
:10588400002ACFD18020637C21680343CB646274F7
:10589400C8E7336880221F001201174013421BD04F
:1058A400AA235B00E05CFFF725FF2200A721553205
:1058B400FF3289000300D06161183000D28803F000
:1058C40067F92168B94B0A6820001A408023134302
:1058D4000B600AF035F8A5E71B04A3D53268B34B77
:1058E40025001A40802313433360AA235B00E05C45
:1058F400FFF700FF5535FF35031EE8610ED06969D7
:1059040000290BD03000EA8803F042F96B69EA6998
:1059140039009B1820006B610AF01BF821680A68A3
:10592400130500D57EE7C0239B011A409A4200D19B
:1059340078E70A689E48024053409E4A13430B602E
:1059440070E7009B9B000493F3181A6803926A465D
:1059540092890192039A120400D482E01968934A4E
:105964002825114080220A431A60009B5D43651973
:1059740029005531FF310B7802932B006133FF333B
:105984001B78002B0CD10298FFF7B4FE071E4DD0F4
:105994002B005B33FF33FC351A88E96E3B0042E091
:1059A4002B005833FF331B78022B00D0C9E080232F
:1059B400019ADB011A400592019A0298FC351A42B9
:1059C40000D18FE0FFF782FE2A6F030007008242B6
:1059D4000ED200222A67029A75489200B218116802
:1059E400014080208001484072490143116002E077
:1059F400121A2A67EFD0019A520608D5029A6E4904
:105A04009200B218106808406C4901431160002BE1
:105A14000CD02821009A514361180A005D32FF32EC
:105A2400FC311288C96E300003F0B2F828230099C3
:105A340059436218FC32506FC0195067D06EC019B8
:105A4400D066106F002803D0926E974200D397E07F
:105A5400009A20005343E3185533FF33197809F0B3
:105A640078FF039B1B0600D4DCE623684D490293B0
:105A7400029A049B944663441A680A4080210902EE
:105A84000A431A602823009959436618F27D049248
:105A9400012A00D0B1E0009A013253430022E318F6
:105AA4005A60731CDB7F934213D0039B5B0600D4C4
:105AB40086E0737D93426AD1337D3B4ADB009B18B9
:105AC4001A68920192091A608022196812060A4320
