:020000040800F2
:100000000060002061410008C1380008C5380008C0
:1000100000000000000000000000000000000000E0
:100020000000000000000000000000000939000886
:1000300000000000000000000B3900080D39000826
:10004000B1410008B1410008B1410008B1410008C8
:10005000B141000871390008B1410008B141000800
:10006000A1390008B1390008C1390008D9390008A0
:10007000B1410008B1410008B1410008B141000898
:10008000B14100080000000000000000B14100087C
:1000900000000000B1410008B1410008B141000872
:1000A000B1410008B1410008E9390008B141000838
:1000B000B141000800000000000000000000000046
:1000C000EF0502546865726D616C204772697A7A37
:1000D0006C792057697265566965772050726F2078
:1000E00049490054472D57562D50524F322D4657EF
:1000F0005F32303236303132365F323033310000E9
:100100000000002010B5064C2378002B07D1054BCA
:10011000002B02D0044800E000BF0123237010BD73
:100120007401002000000000DCCE0108044B10B573
:10013000002B03D00349044800E000BF10BDC046B7
:100140000000000078010020DCCE01080023C25C22
:100150000133002AFBD1581E7047000002B47146DB
:1001600049084900095649008E4402BC7047C04600
:1001700002B4714649084900095C49008E4402BC3A
:100180007047C04603B47146490840004900095E03
:1001900049008E4403BC7047002243088B4274D34D
:1001A00003098B425FD3030A8B4244D3030B8B4278
:1001B00028D3030C8B420DD3FF22090212BA030C81
:1001C0008B4202D31212090265D0030B8B4219D362
:1001D00000E0090AC30B8B4201D3CB03C01A524182
:1001E000830B8B4201D38B03C01A5241430B8B42CA
:1001F00001D34B03C01A5241030B8B4201D30B03B3
:10020000C01A5241C30A8B4201D3CB02C01A5241D9
:10021000830A8B4201D38B02C01A5241430A8B429C
:1002200001D34B02C01A5241030A8B4201D30B0285
:10023000C01A5241CDD2C3098B4201D3CB01C01A9F
:10024000524183098B4201D38B01C01A52414309A9
:100250008B4201D34B01C01A524103098B4201D397
:100260000B01C01A5241C3088B4201D3CB00C01A04
:10027000524183088B4201D38B00C01A524143087C
:100280008B4201D34B00C01A5241411A00D20146A1
:10029000524110467047FFE701B5002000F0F0F82A
:1002A00002BDC0460029F7D076E7704703460B43EE
:1002B0007FD4002243088B4274D303098B425FD35F
:1002C000030A8B4244D3030B8B4228D3030C8B428B
:1002D0000DD3FF22090212BA030C8B4202D3121271
:1002E000090265D0030B8B4219D300E0090AC30B46
:1002F0008B4201D3CB03C01A5241830B8B4201D3F3
:100300008B03C01A5241430B8B4201D34B03C01ADB
:100310005241030B8B4201D30B03C01A5241C30A53
:100320008B4201D3CB02C01A5241830A8B4201D3C4
:100330008B02C01A5241430A8B4201D34B02C01AAE
:100340005241030A8B4201D30B02C01A5241CDD253
:10035000C3098B4201D3CB01C01A524183098B429E
:1003600001D38B01C01A524143098B4201D34B0187
:10037000C01A524103098B4201D30B01C01A5241EA
:10038000C3088B4201D3CB00C01A524183088B4271
:1003900001D38B00C01A524143088B4201D34B005A
:1003A000C01A5241411A00D20146524110467047CC
:1003B0005DE0CA0F00D04942031000D340425340D1
:1003C00000229C4603098B422DD3030A8B4212D391
:1003D000FC22890112BA030A8B420CD389019211C3
:1003E0008B4208D3890192118B4204D389013AD000
:1003F000921100E08909C3098B4201D3CB01C01AD5
:10040000524183098B4201D38B01C01A52414309E7
:100410008B4201D34B01C01A524103098B4201D3D5
:100420000B01C01A5241C3088B4201D3CB00C01A42
:10043000524183088B4201D38B00C01A5241D9D25A
:1004400043088B4201D34B00C01A5241411A00D2DB
:100450000146634652415B10104601D34042002BD7
:1004600000D54942704763465B1000D3404201B556
:10047000002000F005F802BD0029F8D016E770470B
:100480007047C046D0400B00D1409C46203AD34034
:10049000184352426346934018437047844608000D
:1004A0006146FFE71FB500F007FD002801D40021D9
:1004B000C8421FBD10B500F08FFC4042013010BD96
:1004C00010B500F0F9FC002801DB002010BD012070
:1004D00010BDC04610B500F0EFFC002801DD002083
:1004E00010BD012010BDC04610B500F09DFC0028D5
:1004F00001DC002010BD012010BDC04610B500F089
:1005000093FC002801DA002010BD012010BDC04678
:10051000002B15D1002A13D1002906DB01DC0028AD
:1005200006D00020C043410802E0802109060020D7
:1005300007B4024801A14018029003BD45FFFFFF28
:1005400003B4684601B5029800F020F9019B9E466D
:1005500002B00CBC7047C046002B11D1002A0FD14D
:10056000002900D1002802D00021C943080007B4A7
:10057000024802A14018029003BDC04605FFFFFFDC
:1005800003B4684601B5029800F034F8019B9E461A
:1005900002B00CBC7047C046F0B5CE469946030C7D
:1005A0009C46130447461B0C1D000E0061460404C4
:1005B000240C80B50700100C4B4365434143604356
:1005C0002C0CC01824188C46A34203D980235B024C
:1005D0009846C444494679435643230C2D042D0CB8
:1005E0008919634424046019C918C0BCB946B046CF
:1005F000F0BDC046F0B557464E464546DE46E0B52E
:1006000004000D009246994683B08B4230D82DD01D
:100610004946504601F0E4F829000600200001F0A8
:10062000DFF8331A9846203B34D49B4653465A464B
:10063000934042461F00534693401E00AF423BD8B2
:10064000AF4200D179E05B46A41BBD41002B00DA2C
:1006500076E0002200230092019301235A46934042
:100660000193012342469340009329E08242CFD96F
:1006700000220023009201930C9B002B01D01C60F0
:100680005D600098019903B0F0BCBB46B246A94634
:10069000A046F0BD42469B4620239B1A5246DA40B4
:1006A000414613004A468A40170042461F435346BC
:1006B00093401E00AF42C3D9002200230092019351
:1006C0004346002BD8D0FB0772081A4346467B08E6
:1006D0000EE0AB4201D1A2420CD8A41A9D410120E8
:1006E00024196D410021013E24184D41002E06D0F1
:1006F000AB42EED9013E24196D41002EF8D100988D
:1007000001995B4600196941002B24DB2B005A46F6
:100710004446D3402A00E2401C005B461500002BF3
:100720002ADB26009E40330026004746BE403200AA
:10073000801A9941009001919EE7A342BCD882E7BC
:100740004246202300219B1A00220091019201229F
:10075000DA40019285E7424620239B1A2A0046464A
:100760009A402300F340444613432A00E2401C0011
:100770005B461500002BD4DA42462F0020232600CA
:1007800097409B1ADE403B003343CDE7F8B5CE4699
:10079000474680B59146984604000D0001F02CF8BC
:1007A00007000E0002000B0048464146FFF7F4FE2A
:1007B000241A8D41089B380031001C605D60C0BC6C
:1007C000B946B046F8BDC046F8B54B025A0A944641
:1007D0004A00C90FCE4647468946450046022D0EBF
:1007E000120E80B59909770AC40FB609AB1A4C45A9
:1007F00020D0002B0CDD002A34D100292AD05A1E2B
:10080000012B00D18FE0FF2B00D1CDE013002FE0B2
:10081000002B60D0531B002D00D0EEE0002E00D145
:100820003EE15C1E012B00D16BE1FF2B00D1B9E052
:100830002300E7E0002B00DCA4E0002A69D0FF2DB4
:1008400000D1B1E08022D20411431B2B00DCE9E08F
:100850002B000536F708FF2B00D1A5E07A02520ADB
:10086000D8B230E0FF2D00D19EE08022D2041143A7
:1008700001201B2B08DC08002022D840D31A994005
:100880000B005A1E93411843361A730100D471E0CD
:10089000B601B709380000F085FF3B0005388340FA
:1008A00085424DDDB44E2D1A1E405A0768D00F22E6
:1008B0001340042B64D00436730161D5681CFE2DEF
:1008C00054D1FF200022C0051043E4072043C0BCE0
:1008D000B946B046F8BDFE229046681C020040466C
:1008E00010426BD1002D00D0DDE0002E00D102E1DE
:1008F0000029B3D08022771AD204174200D136E102
:100900004C468E1B61D00120164230D10023F708DF
:10091000A4E700299ED05A1E012B00D1CAE0FF2B6C
:1009200042D0130091E7711A4B0100D4D1E08F013E
:10093000BF09380000F036FF3B0005388340012531
:100940002022401B0130121A1E009340C6405A1E3E
:1009500093411E4339D0730700D11BE10F230025BB
:100960003340042BA7D1012072017CD5C0B2B20163
:10097000520AA8E7730703D00F233340042B9AD100
:100980002B0067E7002B23D0531B002D7BD1002EBB
:1009900000D186E05D1E012B00D18BE0FF2B02D041
:1009A0002B0075E04C466746002F00D189E7802276
:1009B000D2033A435202FF20520A84E7771A7B019E
:1009C0006BD4002F00D065E70024002000227AE7D6
:1009D000FE226B1C1A4249D1002D00D09FE0002E50
:1009E00000D1BAE0002900D1CFE07218530100D441
:1009F000CDE092010120520A65E7FF2AD2D0802083
:100A0000C004064301201B2B08DC30002024D84002
:100A1000E31A9E4033005C1EA34118434C46150068
:100A20000E1A32E708002022D840D31A99400B0052
:100A30005A1E93410343F61873019BD50135FF2DD0
:100A400000D13EE701234D49720833400A401A4362
:100A50001600530704D00F231340042B00D02AE7BD
:100A6000730100D52AE72B00F708F7E6FF2B00D12A
:100A700027E7711849084A072FD00F220A40042A95
:100A80002BD00E1DE6E6FF2A8DD08020C004064341
:100A90001B2B24DD13004E1DDCE64C468F1BF9E6B4
:100AA0004C460E00D6E6002E49D1002968D0674694
:100AB0004C467CE77018430174D53049400801402A
:100AC000430709D00F230340042B05D002230E1D3A
:100AD000C0E60123CF08C1E60223CF08BEE62025E9
:100AE0003000D840EB1A9E4033005D1EAB410343FB
:100AF00015005E18A0E7002900D165E74C4667465F
:100B0000ACE68F1B7B012ED5BF01BF09380000F07A
:100B100049FE3B00053883404C46013510E7002E66
:100B200000D140E7002900D141E78023DB039F4249
:100B300000D23CE79C4500D339E7674637E70029F8
:100B400000D134E78023DB039F4200D22FE79C458E
:100B500000D32CE74C46674629E7002900D134E74B
:100B60000023CF087AE64C460123FF0876E6002FE3
:100B700000D129E7FF0871E6FFFFFFFBFFFFFF7DC4
:100B800080220024FF20D2039DE6002366E6002396
:100B9000D70863E60120720100D5E7E631000023A3
:100BA000CF085BE60123C70858E6C046F0B54646C5
:100BB0004F46D6464502C0B5C30F470098460E1CA7
:100BC0006D0A3F0E5BD0FF2F21D08023ED00DB04A8
:100BD0001D43002399469A467F3F74027300640ABE
:100BE0001B0EF60F002B20D0FF2B43D080220020BD
:100BF000E400D20414437F3B4246FF1A4B46724046
:100C00000F2B00D99DE071499B00CB589F46002DCA
:100C10005AD108239946063B74029A467300FF276F
:100C2000640A1B0EF60F002BDED1002C3BD10123F2
:100C300042464946724019430E2918D86448890033
:100C400041588F465346022B00D1B8E0032B6ED09B
:100C500042462C00012B40D100200024C005204337
:100C6000D2071043E0BCBA46B146A846F0BDFF200B
:100C70000024F3E7002C20D10223FF3FD8E7002D0A
:100C800005D104239946033B00279A46A5E728008F
:100C900000F088FD7627431F9D4000237F42994640
:100CA0009A463F1A99E7200000F07CFD431F9C40C4
:100CB00076235B421B1A00209EE703234A461A4311
:100CC00091460320FC3397E70C239946093BFF2705
:100CD0009A4682E703282CD0320038007F30002863
:100CE00047DD630704D00F232340042B00D00434D6
:100CF000230103D53800374B80301C40FE28B6DC7A
:100D0000A401640AC0B2A9E780240022FF20E40302
:100D1000A4E78023DB031D4201D01C420BD08024BA
:100D2000E4032C4364024246FF20640A96E74646E9
:100D30002C008023DB031C4364023200FF20640A82
:100D40008CE76D01600185422DD21B230024013FF9
:100D50000126290064006D00002901DB854201D3D2
:100D60002D1A3443013B002BF3D16B1E9D412C43C4
:100D7000B3E701231B1A1B2B00DD6DE721009E3713
:100D8000D940BC400B00611E8C412343590704D05D
:100D90000F211940042900D00433590113D49B01B9
:100DA00000205C0A5AE71A2301242D1AD0E7981E66
:100DB00043425841404232000024C0B24EE742460E
:100DC000FF2000244AE70120002447E734CF010830
:100DD00074CF0108FFFFFFF770B542004E024C00D0
:100DE00045026D0A120EC30F760A240EC90FFF2AA0
:100DF00010D0FF2C0CD00120A2420AD1B54208D15C
:100E00008B420FD0002A04D12800431E984100E0F5
:100E1000012070BD0120FF2CFBD13543F9D14B409F
:100E20001800F6E70020F4E730B5420044024D0216
:100E3000C30F4800640A120E6D0A000EC90FFF2A84
:100E400018D0FF280AD0002A1ED100280AD1002D70
:100E500029D0002C2DD14800013830BD002D25D1DE
:100E6000002A01D1002CF6D08B4219D001205B4220
:100E70001843F2E7002C19D1FF28F7D1002D15D126
:100E800000208B42F2D1E8E70028EFD08B42EDD171
:100E90008242EBDC04DBAC42E8D80020AC42DCD27E
:100EA00058000138D9E7002CD7D0DFE702204042B4
:100EB000D3E78B42DAD1EEE730B5420044024D026F
:100EC000C30F4800640A120E6D0A000EC90FFF2AF4
:100ED00017D0FF280AD0002A1BD100280AD1002DE4
:100EE0001DD0002C2DD14800013811E0002D0ED16D
:100EF000002A01D1002CF6D08B420CD158000138C9
:100F000006E0002C03D1FF2805D1002D15D00220CA
:100F100030BD002806D101205B421843F8E7002CC1
:100F2000F6D0F8E78B42F6D18242F4DCE6DBAC4245
:100F3000F1D80020AC42EBD2E0E700208B42EAD1AE
:100F4000E6E78B42E7D1F2E7F0B54F464646D64694
:100F50004400C0B546020F1C760A240EC50F002CB3
:100F600000D1DAE0FF2C74D08023F600DB041E43AE
:100F7000002399469A467F3C7B025B0A98467B0099
:100F80001B0EFF0F002B74D0FF2B00D18EE04246CA
:100F90008021D200C90411437F3B2A00E4184B464C
:100FA0007A408846D2B20A2B75DC4B460020022BD1
:100FB0000FDD494601238B40A621C9000B4269D1B0
:100FC000902189000B4200D000E18821194200D015
:100FD000F5E041460904090C43460800350C360487
:100FE0001B0C360C704369435E435D437618030C5B
:100FF0009B19994203D9802149028C46654400041B
:101000001904000C09188E01701E86411B0C890EF4
:101010005B190E439B011E431B016CD423007F33DD
:10102000002B00DCB1E0150071070BD00F20210070
:101030003040042806D00436320103D56E4B1E40E2
:101040000B008033FE2B00DDBDE0B201520ADBB2A3
:1010500048E0002E00D092E008239946063B9A46CD
:101060007B025B0A98467B00FF241B0EFF0F002BC0
:101070008AD14246002A64D1494601321143894649
:101080000A2908DC7D400120EAB2022991DC150022
:10109000002227E015005346022B00D193E0032BDA
:1010A0001AD0012B2CD1002300221BE04346FF3431
:1010B000002B55D003214B460B4319000A2B00DCB3
:1010C00092E00F2B00D08CE08022D203164203D096
:1010D0004346134200D17DE08022D20332435202C4
:1010E000520AFF23D805ED0710432843E0BCBA4657
:1010F000B146A846F0BD0123150071081E400E43FD
:1011000023008033611C002B41DD720794D00F2235
:101110003240042A00D08EE78EE7002E05D104234A
:101120009946033B00249A4626E7300000F03AFB3C
:101130007624431F9E400023644299469A46241A0F
:101140001AE7404600F02EFB4B46241A763C0A2B49
:10115000A1DC4346053883407D409846EAB224E747
:101160004A46023313432A007A40D2B20A2B92DC59
:1011700049461500002926D09946022019E70C237C
:101180009946093BFF249A46F6E615002100012204
:10119000D31A1B2B00DD86E79E3132008E40DA40E9
:1011A000731E9E413243530704D00F231340042B78
:1011B00000D00432530110D50123002292E73D00F4
:1011C0004646824667E7FF2300228BE78022002500
:1011D000D20386E73D001A4383E792010023520AB7
:1011E00080E73D00464677E72A0001237A408B409E
:1011F0000320D2B2E9E6C046FFFFFFF7F8B5474645
:10120000CE46430280B55F0A9B0945004A009C46D2
:101210004B02C40FCE0F2D0E580A120E9909FF2A49
:101220006BD001235E40AB1AB4424BD0002B00DCE4
:10123000FFE0002A00D188E0FF2D00D1EFE08022FE
:10124000D204114301201B2B08DC08002022D840C7
:10125000D31A99400B005A1E9341184363461B1A38
:101260009C4663465B0100D4CDE063469F01BF0905
:10127000380000F097FA3B0005388340854200DCD7
:10128000A2E0B74A2D1A1A4094465A0700D1C3E08B
:101290000F221340042B00D1BEE004239846C4441F
:1012A00063465B0100D4B7E0681CFE2D00D0A5E0CA
:1012B000FF200022C0051043E4072043C0BCB9460C
:1012C000B046F8BD002B00DCEBE1002A46D0FF2D34
:1012D00000D1A4E08022D20411431B2B00DCFBE0F0
:1012E000052398462B00C4446246D708FF2B00D143
:1012F00095E07A02520AD8B2DCE72B00FF3B994610
:10130000002918D101235E40B44200D1CAE04B4607
:10131000002B2DD0002D00D03CE1FF236446002C93
:1013200000D15FE15D1E012B00D174E13400FF2B81
:1013300074D02B0003E1B44200D19CE0002B17D005
:10134000002DEAD0070034006CE00029CCD05A1EF2
:10135000012B2BD0FF2B62D0130073E70029C3D0E1
:101360005A1E012B00D11EE1FF2B58D01300B4E709
:10137000FE226B1C1A420DD1002D60D06346002B5B
:1013800000D020E1002900D028E180220024FF20A5
:10139000D2038FE763465F1A7B0100D5FEE0002F82
:1013A00000D065E700240020002283E76346591A35
:1013B0004B0100D419E18F01BF09380000F0F2F9A8
:1013C0003B000538834001252022401B0130121AC2
:1013D00019009340C1405A1E934119438C460B1E7D
:1013E000E1D05B0700D152E10F2300250B40042B15
:1013F00000D052E701204A0100D492E0C0B2634617
:101400009A01520A56E763465B0705D00F236246EE
:101410001340042B00D040E72B0065E70700002FA6
:1014200000D145E78022D2033A435202FF20520AFC
:1014300040E7002B79D1FE226B1C1A42AAD16346E9
:10144000002B00D1F5E0002900D1D1E05F1A802304
:10145000DB041F4200D10EE1624601248A1A944641
:1014600000203440002A00D124E701201A42C6D1CE
:101470000023D7083DE7002B17D0002D00D0AFE0A8
:10148000FF236546002D00D1ADE05E1E012B00D18B
:1014900089E0FF2BC2D01B2E00DCABE04B1D9C462D
:1014A000130021E74B46002B70D1FE226B1C1A4221
:1014B0005ED1002D00D0C3E06346002B00D1D0E008
:1014C000002900D194E00A006244530100D4D8E01E
:1014D00092010120520AEDE608002022D840D31ADA
:1014E00099400B005A1E934103439C4463465B01A1
:1014F00089D50135FF2D00D1DAE66246012319496D
:10150000134052080A401A43130094465B0704D064
:101510000F231340042B00D0BFE663465B0100D5C8
:10152000C2E66346DF082B00E3E6531B002D00D123
:10153000F4E680206446C0040443A446340001203D
:101540001B2B09DC20256046D840EB1A65469D40E0
:101550002B005D1EAB4118430B1A9C46150080E61C
:10156000FFFFFFFBFFFFFF7DFE226B1C1342A3D09A
:10157000FF2B00D19CE6614449084A0749D00F225D
:101580000A40042A45D00A1D9446ADE6002D00D13C
:1015900076E78DE63400FF2000228BE663460124C7
:1015A000CF1A344064E661444B016DD54808444984
:1015B000014043072CD00F230340042B28D00B1DE0
:1015C0009C46022390E6002900D12BE78023DB0311
:1015D0009F4200D226E7984200D323E701243440FB
:1015E00007001FE734008C467EE60123CF0880E623
:1015F00000237EE620206546801B85406346280048
:10160000F340451EA84103439C4615008C446DE7FA
:101610000223CF086DE60F1B7B0128D5BF01BF0950
:10162000380000F0BFF83B00053883403400012546
:10163000CAE6002900D1B5E601240700344058E687
:101640006346002B00D1E9E6002900D1EAE68023B9
:10165000DB039F4200D2E5E6984200D3E2E60700B2
:10166000E0E6002900D19EE60023CF0841E63400E1
:101670000123FF083DE6002F00D193E60023FF0879
:1016800037E60023D70834E60123CF0831E680226D
:101690000B00D20401201340114200D0AEE6CF0867
:1016A00027E6002B00D15FE7561B002D01D1330048
:1016B000E7E680236046DB0418438446EBE6C04639
:1016C000FFFFFF7D41024200C30F490A0020120EB6
:1016D0007E2A03DD9D2A02DD094A98187047802082
:1016E00000040143952A07DC9620821AD140484223
:1016F000002BF3D10800F1E7963A9140F7E7C04696
:10170000FFFFFF7F70B5002812D0C317C5185D40DA
:10171000C40F280000F046F89E231B1A962B0FDCFE
:10172000082838D0083885406D026D0AD8B202E02A
:10173000002400200025C0052843E407204370BD95
:10174000992B14DC421F95402A001549114055077A
:101750001CD00F252A40042A18D00431CA08490198
:1017600015D59F235202181A550AC0B2E3E7052285
:101770002900121AD14002001B3295402A00551E42
:10178000AA410A43064911405507E2D1CA0852024C
:10179000550AD8B2CFE76D026D0A8E30CBE7C0464E
:1017A000FFFFFFFB1C2101231B04984201D3000C07
:1017B00010391B0A984201D3000A08391B099842C4
:1017C00001D30009043902A2105C40187047C046DA
:1017D00004030202010101010000000000000000FA
:1017E00010B5002903D1FFF7DDFF203002E008002B
:1017F000FFF7D8FF10BDC046F0B54F464646D64667
:10180000C0B506000F001000190082B0002F5DDB8C
:1018100034003D00002B0BDB16001F00AB4217D934
:101820000020002102B0E0BCBA46B146A846F0BD97
:10183000002746428F41AF42F2D800D1A0E00123F9
:101840005B42994609E0002746428F41AF42E7D804
:10185000AF4200D190E00023994639003000FFF7F5
:10186000BFFF804629002000FFF7BAFF43461B1A3E
:101870009846203B75D4310099409A460B003100C0
:10188000404681400A00AB422ED82BD05146A41AC4
:101890009D41002900DA90E00021002001260090FF
:1018A000019151468E400196414601268E404146A7
:1018B000009600291FD1009801994B46002BB1D00A
:1018C00003000C0000215842A141ABE700257442FF
:1018D000BD41002BB7DB16001F00AB42A0D8AF42C2
:1018E000ADD14DE0A142D1D900210020009001915D
:1018F00041460029DFD0D90756085F080E4343460A
:101900000EE0AF4201D1A6420CD8A41BBD4101217B
:1019100024196D410022013B64185541002B06D06B
:10192000AF42EED9013B24196D41002BF8D1009A4A
:10193000019B514612196B41002925DB2E002C001A
:10194000CE404146CC40514600292DDB34008C402E
:1019500021004446A6403000121A8B4100920193A8
:10196000A9E7424638009A462023310090409B1A4E
:10197000D94003000B4382E7A64200D950E76AE74B
:10198000A64200D85BE74BE740462021091A280011
:101990008840260001004046C6402C000E434146C8
:1019A000CC4051460029D1DA404620213500844000
:1019B000091ACD4021002943CBE7414620260127C3
:1019C000761A00200021F7400090019101976BE703
:1019D00010B54621023000F0C5F810BD10B5422107
:1019E000023000F0BFF810BD10B51A4C452200219E
:1019F00020001AF0EDFB2300642104222C3319701F
:101A0000A31DDA77C822FA2392006285E286124A81
:101A10005B002287A52223852300920062870F4A5C
:101A20000833D977A28746390D4A2186A1860D4908
:101A3000E287A21CD18722003E20F539FF394532CA
:101A40001170094AE0852000DA87FFF7C1FF208086
:101A500010BDC0460C0F0020376900001E050000B5
:101A60000A3C0000010200000A1E000010B5024BF3
:101A7000187802F01FF810BD380F0020010010B5D3
:101A800048220400002001F0A5FA0123002807D114
:101A90002000FFF79DFF23881B1A5A1E9341DBB2DB
:101AA000180010BD10B50400FFF792FF012320803D
:101AB00048222100002001F0A5FA431E9841C0B23F
:101AC00010BD70B50C0001280FD8431E984180232B
:101AD00000035B014422C01801F07CFA051E07D008
:101AE0004422002120001AF073FB0125280070BD5C
:101AF0002000FFF773FF23888342F1D1F6E700004F
:101B000010B50948FFF7BAFF002801D0FFF76CFFB6
:101B1000064C00202100FFF7D4FF002803D021004D
:101B20000120FFF7CEFF10BD0C0F0020C80E0020D3
:101B300070B501250E00A84212D8431E984180239B
:101B400004035B010800E418FFF748FF2B00308016
:101B500044223100200001F055FA431E9841C5B2DD
:101B6000280070BD02000B4830B50400013989B26D
:101B7000A14200D130BD1378050A5D402B096B40AE
:101B8000000258401D0368405B01584080B201329A
:101B9000ECE7C046FFFF000070B52B4C0500E37872
:101BA000A2781B02134315D16078237800021843F2
:101BB00080231B01C018000301F0F8FB6078237834
:101BC00000021843802301304005400A1B04C0185E
:101BD00001F0ECFB61782378090219438023152674
:101BE0001B01C918E378A2781B021343734309034E
:101BF0003200C918280001F085FBE378A2781B02A7
:101C0000134301335E43FF2E03D99AB2120AA37025
:101C1000E270E378A2781B02134301339BB2C22B1C
:101C200003D8A3701B0AE37070BD0023A370E37098
:101C3000637822781B02134301335B055B0D23702D
:101C40001B0A6370F0E7C04690010020F0B5002148
:101C50008025304C89B02D0121716171A171E17134
:101C60000B0A21706370A94203D3002323706370B1
:101C700032E080231B01C9180422090301A801F0E6
:101C8000A9FA01283ED1019B01333BD16578237825
:101C90002D021D432ED0013DADB2802300261B0135
:101CA000EF183F03A670E6700422390001A801F086
:101CB00091FA012820D1019B01331DD1A670257016
:101CC000360A2D0AE67065708022637821781B023F
:101CD00012010B439342C8D202AC1522002120000E
:101CE0001AF076FA022320002370FFF755FF002038
:101CF00009B0F0BD084DD0E70136B6B21537C32E96
:101D0000D2D1E1E76178237809021943013189B220
:101D1000A6E7C04690010020FF070000F0B587B09D
:101D200002F088FA264B5A79197912020A439979F6
:101D300009041143DA7912060A432249821A0C78FF
:101D4000FA21890061438A4233D3020A5A71020C94
:101D50009A71020E1871DA71FC231B4E0090184024
:101D60006B466D46370000241870032C05D80023FD
:101D7000F85E00281FDA00232B710C23F05E00F0C0
:101D80002AF800F028F82872306900F024F800F0F2
:101D900022F80134E4B2A8730C3601350237062C60
:101DA000E3D16A46084B68465E331B781375FFF72C
:101DB000F3FE07B0F0BD00F00EF82871DDE7C04675
:101DC000900100204B0F0020640E002010B50A2166
:101DD000FEF76CFA10BD10B50A210530FEF766FA61
:101DE00010BD0000F8B502F025FAFA213D4A89003D
:101DF0001368C31A8B4257D33B4D10606A1D3B4B8F
:101E0000D27FDB7F002A22D1394900228C5EAA1DB5
:101E1000D07F0138032805D8FEF7AAF902474A4DBA
:101E200002228C5E2822AE5E2A22A95E8E420ED04D
:101E30000735ED7F301CA64200DA201C00B2821B61
:101E4000581B5043891BFEF731FA4319DBB229496D
:101E5000294C0878421CD2B20A7023540F2A01D9A7
:101E600000230B7000231800E25C0133801880B25D
:101E7000102BF9D100090930FFF7A8FFC0B2031CED
:101E80000A2800D90A231D4A1D49DBB2C95C126821
:101E9000516317498C7A002C03D1002801D03220DD
:101EA00050630A2253438B72F8BD04228C5EB9E75B
:101EB00006228C5EB6E74888021C00B2A04200DA17
:101EC000221C0427CC5F16B28888A64200DA021CC6
:101ED000C8880626895F14B28C4200DA021C14B24C
:101EE000A0E7C046AC0100200C0F0020140F00201A
:101EF000640E0020980100209901002014080020A1
:101F000000000020012210B51100024803F0F4F88F
:101F100010BDC0460004005010B500220121024847
:101F200003F0EAF810BDC046000400508023DB0532
:101F30005A6B002A02D132325A6370470022FBE703
:101F40000022024B1A70024B1A807047B201002027
:101F5000C40E0020F7B502F06DF9FA21724A009024
:101F600013688900C31A8B4200D2B5E06F4B106032
:101F70003622985E6E4A0425002411000027D65FA1
:101F8000864200DB0224013DEDB20232002DF5D184
:101F90001A0038321078FA2292004243886D90423B
:101FA00001D9042214431A00642039321278614E98
:101FB00050430022B758874201DD08273C430C32CA
:101FC000482AF7D1FA22588F92004243486D904236
:101FD00001D910221443086900220100564FBE584F
:101FE000B04200D23000B14200D931000C323C2A5C
:101FF000F5D11A00FA273D321278BF007A434F4ECE
:10200000824212D8B94208D33C331F78431A642065
:102010005843FEF7C1F8874207D820231C43337882
:10202000092B1ED80133337006E0002CF7D1444B46
:1020300034701C60434B1C7000263100414C2378E7
:10204000FF2B38D1FA22404B92001B88934234D2A6
:1020500000232370002D40D001223C4B22701A70C7
:102060002BE000263A4AA3B213803A4A11880B4368
:1020700013802E4B31009A8E01925A8E188E944600
:102080003300012217009F403C420CD0019F1F41AA
:1020900017420CD167461F4117420AD107001F4162
:1020A000174200D016000133062BEBD1C6E715000E
:1020B000F4E70121F2E7002BCCD02278531EDBB2EB
:1020C000FD2B05D81E490B68002B0DD1009B0B6022
:1020D000002E24D0FFF72AFFF7BD0029EDD01B4BBF
:1020E0001D7001232370E8E70099CB1A1A4908787C
:1020F000FA21890041438B42EAD3144B1978032318
:10210000012900D10833511C21709A4202D2FFF7F5
:10211000F9FEDDE7FFF700FFFF232370D8E78023F8
:10212000DB055E63D8E7C046B80100200C0F002035
:10213000640E0020740E0020800E0020B2010020EA
:10214000B4010020B0010020C00E0020B101002029
:10215000C40E0020C60E00204A0F0020F0B5022752
:1021600089B01422002103A81AF032F80421A02516
:1021700000240126284BED055A6B28483A435A6340
:102180005A6B3A400192019A5A6B0A435A635B6B4D
:1021900001220B407C31B9400293029B02F0ACFF5C
:1021A00028000022082102F0A7FF28000122402178
:1021B00002F0A2FF00223921184802F09DFF184BBF
:1021C00003A91648039304960594069402F0D4FEDE
:1021D000C02303A91B02134803930494059602F03D
:1021E000CBFE114B280003A904930397059602F038
:1021F000C3FE4823280003A903930496059406947C
:1022000002F0BAFE22000321052002F053FC052053
:1022100002F07AFC09B0F0BD00100240000400504A
:1022200039020000000800500000211007B501210C
:10223000104B09209A6B0A439A6300229B6B0B4058
:1022400001931100019B02F035FC092002F05CFCB7
:1022500000220A20110002F02DFC0A2002F054FC9A
:1022600000220B20110002F025FC0B2002F04CFC98
:1022700007BDC046001002400848094B10B5036076
:1022800000238380436183610133036202F062FCB7
:10229000002801D072B6FEE710BDC0463C0A0020FF
:1022A000003002401048114BE02210B50360822339
:1022B000D200C26080225B004360002392008261F2
:1022C000FA3A836003614361C361036243628362DC
:1022D000FF3A03630833C262436304F0F1F9002854
:1022E00001D072B6FEE710BD74090020003800402E
:1022F000B72310B51A481B4C9B00C4501A4B0360FF
:1023000008230371063BC371437200234381C360FA
:10231000037402F035FF021E01D072B6FEE7200002
:1023200012490DF029FC002801D072B6FEE720000A
:102330000F490DF049FC002801D072B6FEE72000DD
:102340000C490DF052FA002801D072B6FEE72000C9
:102350000DF062FC002801D072B6FEE710BDC04649
:102360009C040020C0010020005C0040F40000201C
:1023700060000020AC000020044B10B51B6883F304
:102380000888034B1B68984710BDC0460000FF1F1C
:102390000400FF1F30B5072501248FB0182200214B
:1023A00007A819F015FF1422002101A819F010FF49
:1023B000124A06A81368AB43234313601223069303
:1023C000EE33099300230A9340330B938023DB03FE
:1023D0000D9303F0B1FC002801D072B6FEE7029025
:1023E000039004900590210001A8019503F046FE9A
:1023F000002801D072B6FEE70FB030BD00200240C9
:102400008021F0B5CE4B4905DA6B9FB00A43DA6301
:10241000DA6BCC4D0A4001210192019A5A6B0A43B2
:102420005A635B6B0B400293029BA023DB051A6887
:102430000B318A431A60296FC34A914202D01B694B
:102440009B0703D400232B67FFF796FFBF4B802227
:10245000196A52040C001440114228D0BC4A9A60F8
:10246000BC4A9A60BC4ADA60BC4ADA6080225202F6
:1024700019691142FCD11A6AB9490A401A628022CC
:10248000596992020A435A61802252021969114223
:10249000FCD18022596912050A435A61BFF34F8F5C
:1024A000B04BB14ADA60BFF34F8FC046FDE701F091
:1024B000A9FEFFF76FFF6A6FAC4B9A4227D16C679A
:1024C000FFF74CFEA725FFF7B1FEFFF7D5FEFFF79C
:1024D0000FFFFFF7E7FEA64800F02EFEA54CAD006B
:1024E00001F082FD012001F0ABFEA34B5B5D032BED
:1024F0000BD0013C002CF3D1BFF34F8F994B9A4A7C
:10250000DA60BFF34F8FC046FDE79A4CE8E7FFF76C
:1025100025FEFFF78BFEFFF7AFFE9848984B072785
:10252000036082235B00436080231B028360E023FF
:10253000DB00C36080230826DB0204614461836101
:10254000C461046244628462C7620463466304F047
:10255000B7F8051E01D072B6FEE7FFF7C9FE0C22E0
:10256000290011A819F034FE864C874B6661236060
:1025700080235B03636080231B0623612300012605
:102580002C331E7080235B01236323003C331E70B9
:10259000802367631C275B002000A560E56025831E
:1025A000A676E6616562A56227646364A564E56456
:1025B00001F05CFE002801D072B6FEE7734B2000EC
:1025C00011A91193129601F0B7FF002801D072B63D
:1025D000FEE76F4B200011A9119301F0ADFF002819
:1025E00001D072B6FEE76B4B200011A9119301F0E8
:1025F000A3FF041E01D072B6FEE70100102206A858
:1026000019F0E6FD0C22210003A819F0E1FD3A00C3
:1026100021000AA819F0DCFD3422210011A819F0CC
:10262000D7FD5D4D5D4B28002B6063236E60AC6071
:10263000EB602C616C61AC6105F01EF9002801D0E3
:1026400072B6FEE7802328005B0106A9069305F019
:1026500035FA002801D072B6FEE7280005F036F9F9
:10266000002801D072B6FEE70023280003A90393D7
:102670000493059305F048FB021E01D072B6FEE7F5
:1026800060270B900C900D900E900F9010900AA95F
:1026900028000A9705F080F9002801D072B6FEE7FD
:1026A000802680231190129013901490159017900B
:1026B000189019909B041B901C901D90B601280047
:1026C00011A916961A9305F053FB041E01D072B699
:1026D000FEE7280001F07AF81C2221000AA819F070
:1026E00077FD3422210011A819F072FD2C4D2D4BDD
:1026F00028002B60E023FF336B607D3BFF3BAC6029
:10270000EB602C616C61AC6105F0B6F8002801D07B
:1027100072B6FEE7280005F0D9F8021E01D072B6A5
:10272000FEE70B900C900D900E900F9010900AA960
:1027300028000A9705F030F9002835D072B6FEE778
:102740000010024000700040FEC000000020024067
:1027500023016745AB89EFCD3B2A19087F6E5D4C9D
:10276000FFFFFFFE00ED00E00400FA05ADDE000013
:10277000740900200F270000C0010020D8090020A4
:1027800000300140BC0A002000240140000400A8E1
:10279000000004480000084C14080020002C0140F0
:1027A0007C07002000480140119012901390149073
:1027B000159017901D9011A92800169605F0D8FACB
:1027C000061E01D072B6FEE7280000F0FFFF1022BF
:1027D00031000AA819F0FCFC0C22310006A819F0FF
:1027E000F7FC1C22310011A819F0F2FC8023524C96
:1027F000DB052360772320006360143BA660E36061
:102800002661A66105F038F8002801D072B6FEE70F
:10281000802320005B010AA90A9305F04FF90028E4
:1028200001D072B6FEE7200005F050F8002801D074
:1028300072B6FEE70023200006A90693089305F070
:1028400063FA021E01D072B6FEE760231290139065
:10285000159011A92000119305F09EF8061E01D0D5
:1028600072B6FEE7200000F0B1FFFFF71BFD05F098
:10287000E9FE3100314805F043FA3100200005F04F
:102880003FFA3100280005F03BFA2D4800F054FCD7
:1028900011A8119600F072FC2A4B119A9A4203D1AA
:1028A000FFF72EF9FFF7D2F9032000F06DFB00F0DF
:1028B00063F9254B01201978244C00F03BF905F011
:1028C000C7FE102001F0BCFC2C3405F0C1FE102026
:1028D00001F0B6FC207801F0EDF801F0ABFC1C4EE5
:1028E000306001F0A7FC040001F0A4FC0500031B0C
:1028F0000F2B1ED905F0ACFE00F002FBFFF772FAB9
:10290000FFF728FBFFF70AFA124C2378002B0FD0B1
:10291000114B22781A7001F08DFC104B30601B783F
:10292000002B01D001F0E2F8FFF70AFB002323702F
:102930002C0001F059FBD7E7C8070020140800203D
:1029400074090020EF4018004F0F00200C0F0020EA
:102950005C0E0020BD010020BC010020580E0020AC
:1029600072B6FEE7034B026810B59A4201D100F03F
:102970005FFD10BD0038004010B5FFF7F3FF10BD3C
:10298000034B026810B59A4201D100F085FD10BDDD
:1029900000380040034B026810B59A4201D00CF099
:1029A000AFF810BD0038004007B56B46D91D087060
:1029B0000A230122014803F0FBFE07BDD8090020CD
:1029C00010B50400A02000220821C00502F094FBED
:1029D0002000FFF7E9FF10BD10B50400A020012280
:1029E0000821C00502F088FB2000FFF7DDFF10BDC5
:1029F00070B50D00884213D8AA2911D8233084B2AB
:102A00002A20FFF7DDFF200AFFF7E6FFE0B2FFF71D
:102A1000E3FF23350020FFF7DFFFE8B2FFF7DCFF1D
:102A200070BD70B505000C00884212D8A0235B0071
:102A300099420ED82B20FFF7C3FF280AFFF7CCFFDF
:102A4000E8B2FFF7C9FF200AFFF7C6FFE0B2FFF7C1
:102A5000C3FF70BD70B50C001D00A92819D8A023B4
:102A60005B00994215D28118AA2902DDAA22121A06
:102A700092B26119994201DD1B1B9DB2411E511892
:102A800089B2FFF7B5FF631EEB18200099B2FFF77C
:102A9000C8FF70BD10B5FFF7DDFF2C20FFF790FFDA
:102AA00010BD000070B58378C2781B061204134372
:102AB00042780400134302780D00120213430360AE
:102AC000C279837912041B06134342790821134308
:102AD0000279120213434360A0200122C00502F0D4
:102AE0000BFBAAB221000B4804F03CF90222AD080E
:102AF0000834954200D870BDA378E1781B0609041C
:102B00000B43617801320B43217809020B4308C45F
:102B1000EFE7C046D809002010B504003620634214
:102B20005C41FFF74DFFC02064422040FFF754FF97
:102B300010BD000010B5002813D00800FFF7ECFF0F
:102B40001120FFF73DFF0B4C0020013CFFF744FF35
:102B5000002CF9D1782001F073FB2920FFF730FF1A
:102B600010BD2820FFF72CFF142001F069FB102076
:102B7000F4E7C04600A90100A02070B50122402161
:102B8000C00502F0B9FA0A2001F05AFBA020002289
:102B90004021C00502F0B0FA642001F051FBA020F2
:102BA000A026002501224021C00502F0A5FA7820C8
:102BB00001F046FB074CF60522780821300002F0B0
:102BC0009BFA01356078FFF7EFFE02347E2DF3D1DA
:102BD00070BDC046B0CF01080721F0B5BB4A89B02F
:102BE0001378002401330B4001931370DB43019AE7
:102BF000DB04D2001343B64AB64F9361B64B1B8831
:102C00000493B64B1B780593002300200021E219A2
:102C10000AE006265E43955B013302950025039585
:102C2000029D039E40197141049D9D42F1DC059A6D
:102C3000FDF728FC06AB18530234062CE4D1A84B50
:102C4000A8481B88584306AB1988FDF7A5FAA64C7F
:102C500085B22081280006AB9F88A4497843FDF700
:102C60009BFA06AB5B8806001800A04968430293F4
:102C7000FDF792FA050001980138062800D9FCE01A
:102C8000FDF776FA043D69849FA8D200B3B2984A52
:102C9000984E5E430A21535E802149015B188021D2
:102CA000760A734309015B1811891B135B18191C01
:102CB0001B0400D5002121833223D15E80235B01D8
:102CC000C918ABB20A254B435D4380231B01ED18A5
:102CD0003023D35E2D13ED180ED4E5647B4B1B78A7
:102CE000002B07D101F0A6FA834A844913681060CB
:102CF000C31A0B6009B0F0BD0023E364EEE7B3B282
:102D00007B4A7C4E5E430621535E802149015B185D
:102D10008021760A734309015B1891881B135B18A5
:102D2000191C1B0400D50021A1812E23D15E802314
:102D30005B01C918ABB20A254B435D4380231B01DD
:102D4000ED182C23D35E2D13ED1801D42564C5E7AF
:102D500000232364C2E7380000F070FF644AE0807B
:102D60002A23D15E80235B01C918ABB20A254B43ED
:102D70005D4380231B01ED182823D35E2D13ED182E
:102D800001D46563AAE700236363A7E7B3B2584A97
:102D9000584E5E430E21535E802149015B1880210D
:102DA000760A7343090192895B181B139B181A1C3E
:102DB0001B0400D500220298A28400F03FFF60802F
:102DC0008CE7380000F03AFFA080029800F036FF50
:102DD000208083E78020464A40011E23D15EB3B2A3
:102DE0000A2609184B4380215E4309011C27D35F43
:102DF00076183613F618F343DB171E40ABB23D4D81
:102E000026615D431A26935F6D0A1B186B43128B74
:102E10005B181B139B181AB248341B0401D4228080
:102E20005CE70023238059E78020314A40012223B8
:102E3000D15EB3B20A2609184B4380215E430901D3
:102E40002027D35F76183613F618F343DB171E409E
:102E5000ABB2284DE6615D431626935F6D0A1B18E1
:102E60006B43928A5B181B139B181AB21B0401D484
:102E7000A28733E70023A38730E780201C4A8027FE
:102E80002623D15EB3B20A26400109184B435E43A4
:102E90003F012421535EF6193613F618F343154902
:102EA000DB17ADB269431E40A6621225535F490A83
:102EB0001B184B43128ADB191B139B181AB21B04F5
:102EC00001D422860AE70023238607E72C0B002083
:102ED00000040050300B00202E0B00202D0B002092
:102EE0006A75FF1FB80B0000640E0020FF0F000082
:102EF000C80E0020330C0000280B0020240B0020FB
:102F0000F7B501F097F91D4A1368C31A632B34D93A
:102F100000261B4F35003C00106001960096FA21F8
:102F20003869009B89001B1800930C22BB5E019A34
:102F30005843D2180192FDF7B9F90135EDB2786125
:102F400036180C37062DEAD1009B2900A36501989D
:102F50006665FDF721F9230080215C331880C901E3
:102F6000084802F0C3F8802105000902054802F074
:102F7000BDF86D0028435E342070F7BD200B0020A3
:102F8000640E00200008005070B5031C072800D90B
:102F900007230C49DAB20B70012393400A4D0B4E04
:102FA0002800338001F0D4FC041E07D103223388AB
:102FB00028005A43064901F03BFC0400FFF7A0FF3C
:102FC000200070BD2D0B0020BC0A00202E0B00201D
:102FD000300B002070B504000800C021A5180123A3
:102FE00089018D420AD8064D7F33A9681942FCD168
:102FF000210000F0EFF843425841C3B2180070BD01
:1030000000380040F7B50191C02106008018150076
:1030100089010122884214D816487F3281680C0049
:1030200014401142FAD1002B05D180277F00AC4219
:1030300009D3002205E0300000F0B8F9022201288F
:10304000F3D01000FEBD2B1B1A1C9BB2BB4202D951
:1030500080235B001A1C93B20093019B009AA11974
:10306000181900F04FF9002802D1009BE418DEE7A0
:103070000322E6E700380040802170B50022890075
:1030800005000E4802F038F8FA230D4E01220D49D2
:1030900030689B0003F08CFB041E06D164230122E0
:1030A0002900306803F09CFD0400802101220348C0
:1030B000890002F021F8200070BDC04600040050D5
:1030C000480E0020AFD00108F7B56B468027DD1D04
:1030D00000230A262B70BF0000223900134802F09B
:1030E0000BF8FA2312480122124900689B0003F0F2
:1030F0005FFB0122040039000C4801F0FDFF002CA9
:1031000012D12800FFF7B8FF041E0DD12B789B07C2
:1031100002D4013E002EDFD101222B78022413427B
:1031200002D1D3409A4314002000FEBD0004005099
:10313000480E0020AED0010870B580260C4C0D4D15
:10314000B600310020600022280001F0D5FFFA23EC
:1031500001229B000849206803F02AFB0400634217
:103160005C4128003100012201F0C6FFE0B270BDD1
:10317000480E002000040050ACD00108002280213D
:1031800070B58900026005000F4801F0B5FFFA2311
:103190000E4E01220E4930689B0003F009FB041E0D
:1031A00007D1FA230322290030689B0003F018FDA1
:1031B0000400802163425C4101220348890001F040
:1031C0009BFFE0B270BDC04600040050480E0020D6
:1031D000ADD001080323F7B501AC23700B0C49BA3D
:1031E000618080210600890010481500002263706C
:1031F00001F082FFFA230E4F2100042238689B0061
:1032000003F0D6FA041E06D131000A4B3868AAB280
:1032100003F0E6FC0400802163425C410122034884
:10322000890001F069FFE0B2FEBDC0460004005015
:10323000480E002010270000F0B5274D13002A6823
:1032400085B05D3214780022012C41D1234F244CEB
:103250003B60244B20601A700193032322480094A2
:1032600003AC016023700B0C49BA618080211F4EB2
:103270001F4889006370326001F03EFFFA2321008D
:10328000042228689B0003F093FA041E14D13368CB
:103290003A681849D21A80235B019A4200D91A0071
:1032A000009B0A602868196892B203F0C1FE041EF0
:1032B0000BD0286803F06EFF802101220C488900A2
:1032C00001F01AFF0223019A137063425C41E2B2DB
:1032D000100005B0F0BDC046480E00203C0E002096
:1032E000440E0020380E0020400E0020340E002036
:1032F00000040050300E0020014B1878C0B2704717
:10330000380E0020F0B585B00D0017000190FFF7D2
:10331000DBFE041E40D10223802103AE0200337085
:1033200020482B0C89006DBA7370758001F0E4FEA3
:10333000FA231D4D0422310028689B0003F038FA5F
:10334000041E23D1FA233A00019928689B0003F058
:103350002FFA041E1AD180210122962511488900D6
:1033600001F0CAFE6D00012000F06AFF02ABDE1C16
:103370003000FFF781FE041E08D1327801231400CB
:103380001C401A4202D0013D002DECD180210122C7
:103390000448890001F0B0FE63425C41E0B205B030
:1033A000F0BDC04600040050480E002073B5050073
:1033B000FFF78AFE041E32D12023802101AE0200D5
:1033C000337019482B0C89006DBA7370758001F049
:1033D00093FEFA2315480422310000689B0003F095
:1033E000E7F98021040001220F48890001F084FEE2
:1033F000002C14D1FA25AD00012000F021FF6B460E
:10340000DE1C3000FFF738FE041E08D1327801239D
:1034100014001C401A4202D0013D002DECD1634241
:103420005C41E0B276BDC04600040050480E00206A
:10343000134A1449136810B50C681B191360124A1B
:103440001268934218D28024D21A6401A24200D991
:1034500022000A600D4992B20968C91803F0E8FD1C
:10346000002808D002220A4B1A70013A802109482C
:10347000890001F041FE10BD0122054B1A70F5E7ED
:10348000340E0020300E00203C0E0020440E0020A0
:10349000380E0020000400500222802110B5044B99
:1034A00004481A708900013A01F026FE10BDC0469A
:1034B000380E00200004005001210A4B82B01A6C23
:1034C0000A431A641A6C0A4080210092009ADA6B4F
:1034D00049050A43DA63DB6B0B400193019B02B0A1
:1034E0007047C0460010024070B52024050090B01F
:1034F0001422002103A818F06BFE2200002108A866
:1035000018F066FE214B2A689A423DD108A808941B
:1035100002F068FE002801D0FFF722FA80211C4B40
:1035200049031A6C00260A431A641A6C19480A40A7
:1035300002210192019A5A6B0A435A635B6B05960A
:103540000B400293029B062303A90393033B0493BE
:1035500001F012FD104C114B200023600523636025
:103560007B332361803363618023DB00A3612023ED
:10357000A660E660E361266201F090FBB04201D0F4
:10358000FFF7EEF92C65A56210B070BD0024014074
:103590000010024000040050600A002008000240B1
:1035A000084B026882B09A4209D18021064B49013A
:1035B0009A6B0A439A639B6B0B400193019B02B089
:1035C0007047C0460030024000100240F0B50500D0
:1035D00093B01422002105A818F0FAFD2022002142
:1035E0000AA818F0F5FD2B68544A93424BD10423E6
:1035F0000AA80A9302F0F6FD002801D0FFF7B0F9FF
:10360000802701214E4B7F011A6CA0203A431A6497
:103610001A6C00263A400192019A5A6B02240A431E
:103620005A635B6BC0050B400293029B242305A9E0
:103630000593069408940796099601F09DFCA02036
:103640001023C00505A905930694079608960996C8
:1036500001F092FC3B4C3C4B200023601123636043
:10366000013BA3607033E66023616661A661E66199
:10367000276201F013FBB04201D0FFF771F96C65CE
:10368000A56213B0F0BD314A9342FAD180212C4B90
:10369000C901DA6B2E480A43DA63DA6B0A400392F7
:1036A000039A0222596B114359635B6B05A91340BE
:1036B0000493049BE0235B000593BD3BFF3B069214
:1036C0000892099301F058FC224C234B802223607E
:1036D000122363600023A360E3606361A361E3617D
:1036E000802320009B012261236201F0D7FA002889
:1036F00001D0FFF735F9194BAC65A562184C802253
:10370000236013236360033BA36000232000E36076
:1037100022616361A361E361236201F0BFFA0028C3
:1037200001D0FFF71DF9002201211A206C65A56266
:1037300001F0C0F91A2001F0E7F9A2E700300140DA
:1037400000100240180900201C0002400038004010
:1037500000040050BC080020300002404400024039
:10376000600800200368164A84B093420BD1802180
:10377000144B09011A6C0A431A641B6C0B40019329
:10378000019B04B070478022D205934209D10121E8
:103790000C4BDA6B0A43DA63DB6B0B400293029B40
:1037A000EFE7094A9342ECD18021064BC9021A6C1B
:1037B0000A431A641B6C0B400393039BE1E7C0466A
:1037C000002C0140001002400048014010B50400E8
:1037D00088B01422002103A818F0FAFC23681E4ABE
:1037E000934215D101211D4B5A6B0A435A635B6BFF
:1037F0000B400093009B80231B020393022304933E
:10380000A02003A9C005079301F0B6FB08B010BDC6
:103810008022D20593420DD10123104A516B1943E6
:103820005163526B03931A400192DB180493019A7F
:103830000133E5E70A4A9342E8D10121074B5A6B6D
:103840000A435A635B6B0B400293029B80230393F2
:103850007E3B04930333D3E7002C01400010024069
:103860000048014010B504008AB02022002102A8BF
:1038700018F0AEFC104B22689A421AD1082302A815
:10388000029302F0AFFC002801D0FFF769F8802115
:103890000A4B8901DA6B08200A43DA630022DB6BEA
:1038A0000B4001931100019B01F004F9082001F085
:1038B0002BF90AB010BDC046005C00400010024069
:1038C000FEE7000080210B4B4905DA6B82B00A430A
:1038D000DA63DB6B084A0B400193019B074B5A6785
:1038E000BFF34F8F064B074ADA60BFF34F8FC046D6
:1038F000FDE7C04600100240ADDE00000070004051
:1039000000ED00E00400FA057047704770B500F064
:1039100085FC124D2B78012B1ED100F08BFC04008E
:10392000A0200221C00501F0E1FB0D4B1A68A21A8C
:1039300001280ED10B498A4203D902210A4A11708B
:1039400003E0322A01D9084A10701C6000232B7052
:1039500002E006498A42F0D870BDC046500E0020F1
:103960004C0E0020EE020000BD010020E204000029
:1039700010B5094C2378002B09D100F05BFC074AF5
:103980001368C31A322B02D901231060237002205E
:1039900001F0BAFB10BDC046500E00204C0E0020B6
:1039A00010B5024801F062FC10BDC0469C04002026
:1039B00010B5024801F08CFA10BDC046600A002024
:1039C00010B5034801F084FA024801F081FA10BDF5
:1039D00018090020BC08002010B5024801F078FA50
:1039E00010BDC0466008002010B5024803F058FD25
:1039F00010BDC046740900200120704710B518F0B2
:103A00004FFC162303600120404210BD10B518F092
:103A100047FC16230360FEE770B50E001400002576
:103A2000A54201DB200070BD00E000BF70550135EC
:103A3000F6E770B50E0014000025A54201DB20005A
:103A400070BD705D00E000BF0135F6E70120404227
:103A5000704780239B0100204B6070470120704716
:103A6000002070470B490C4A0300521A0B4910B54D
:103A70000868002801D10A4808600868C318934202
:103A800006D918F00DFC0C2303600120404210BD44
:103A90000B60FCE70004000000600020540E0020D2
:103AA000085700208022024B12059A607047C046DA
:103AB00000ED00E0064B1A68031C0A2803D20A2313
:103AC000DBB253637047C1B26429F9D96423F7E7C5
:103AD0007C0700200022034B1B685A63024B013213
:103AE0001A7070477C070020580E002010B5044B58
:103AF0001878FFF7DFFF0022024B1A7010BDC04696
:103B0000380F0020580E002070B5040008000E0089
:103B1000FEF75CF90500632816DDFEF757F9FEF79E
:103B200055F9303020802800FEF750F90A21FCF7C3
:103B3000A3FC3031618028000A21FCF79DFC0023A2
:103B40003031A180E3800DE009280CDDFEF73EF95D
:103B5000303020800A212800FCF78EFC0023303111
:103B60006180A38070BD03000A21303323802E239F
:103B70004942414363808919E1E7F8B505000F1E0A
:103B800024DB0800FEF722F96426FEF71FF97642CF
:103B90004643F61904003000FEF718F902000A2027
:103BA000404250438019002C04D03034A4B230324B
:103BB00091B203E020242100002AF8D1303080B2F5
:103BC00000232C806980A880EB80F8BD20242D2163
:103BD0002000F5E7F8B5040008000F006426FEF7A2
:103BE000F5F8FEF7F3F876424643F6190500300083
:103BF000FEF7ECF80A214942414320238919002DA0
:103C000001D03035ABB223802E23A3800023303087
:103C100030316080E1802381F8BD0300002010B5C1
:103C20001400834209DB53431800FCF73FFB031CDD
:103C300080B2A04200D9231C98B210BD0300F7B592
:103C4000643B3F4A9BB20400934200D976E00023D4
:103C50003C4A0021FCF7A0FC3B4A0025121BD3176D
:103C6000FCF77AFC030B09051943364A00230005CB
:103C7000FCF74EFC80239B03984259DC80231B03F6
:103C8000984258DB314BC418E3172200200019007A
:103C90001F00FCF781FC0B00C9170E03310B0091CC
:103CA00000210200019100980199801859410B03ED
:103CB000060D1E4322003B003000F117FCF76CFCA0
:103CC0000B00C91709030200080B00218018594195
:103CD0000B03000D03211843FCF7E8FA8522761048
:103CE000A41B04191A480023684300195200C11785
:103CF000FCF752FC002304000D00C91709030A0B4E
:103D000012196B4111000A0D80211B031A43114B3C
:103D10000020D218D3174900FCF7FAFB0E4BC0184D
:103D20000A234343D8170003000BC0180015FEBD3B
:103D300040100135A0E74000013DA1E70748F6E744
:103D4000B40B000010270000FF0F00000000F0FF80
:103D500099110B00BD0D00009A99EDEE18FCFFFFC4
:103D6000F7B51E000023040001923380994212D05F
:103D70008B4D2F78022F10D12869EE68361A8E42AB
:103D800000D90E00143032002100281818F0BDFAB6
:103D90002B699B192B610020FEBD00780E2810D8DE
:103DA000FCF7F0F9240033002B00F9FF3A003D0046
:103DB00042005100630094007500AC00BE00370063
:103DC000C400F22800D1D0E0E5D8F02800D1C1E04D
:103DD000F128E0D1734B744A1A67BFF34F8F734BCE
:103DE000734ADA60BFF34F8FC046FDE7714901980F
:103DF00018F083FA20233380CDE70C2422006E498B
:103E0000019818F082FA3480C5E703246B49220038
:103E1000F6E76A494424FAE764246949F7E7012987
:103E2000B9D148246749F2E70229B4D960788A1EDB
:103E30008318482BAFD8634BA11CC01818F065FA43
:103E4000FDF714FEA7E70229A5D16378002B01D165
:103E50005D49DFE7012B03D1F0225C4B1A709AE732
:103E6000022B98D1F122594BF8E7022900D892E7AA
:103E700060788A1E8318442B05D8534BA11CC018A8
:103E800018F043FA87E74630401AC0B284E7002FA3
:103E90001AD1092918D101232B7000F0CBF9042283
:103EA0006860611C4A4818F030FA04224948611DD4
:103EB00018F02BFA8023EA685B009A4200D86AE780
:103EC00080235B00EB6066E70920DDE7002FFBD174
:103ED0000929F9D102232B7000F0ACF904226860A3
:103EE000611C3B4818F011FA04223A48611D18F091
:103EF0000CFA2B00FF332F615F75DBE7002FE3D156
:103F00000929E1D103232B7000F094F904226860A1
:103F1000611C2F4818F0F9F904222E48611DAFE703
:103F2000022900D037E72C4B627897E7052900D0AB
:103F300031E72379E2781B021343A278617827489E
:103F400012020A4301880A40254902800A88134068
:103F50000B8020E7134A1367BFF34F8F134B144AAC
:103F6000DA60BFF34F8FC046FDE7062900D012E7A5
:103F70006378552B00D00EE7A378AA2B00D00AE770
:103F8000E378552B00D006E72379AA2B00D002E76F
:103F9000144B1A78002A00D0FDE662795EE7C0462D
:103FA000580F002000700040FEC0000000ED00E04F
:103FB0000400FA05F0D001085075FF1FC00000088A
:103FC000640E00200C0F0020C80E002011000020FD
:103FD000600F0020640F002010000020C40E00209D
:103FE000C60E0020540F0020F8B5554C2578002D42
:103FF00000D17AE0802353498A6817001F401A4293
:10400000FAD1022D37D0032D67D0012D0ED14E4E9F
:10401000E2683000A168FFF7DDF80135012836D1EC
:10402000E168300089B20BF05DFC277000F002F906
:104030006368C01A454B984201D900232370444D50
:104040002878FF2816D02378002B13D10300F03BEB
:10405000012B0DD8F138434258413B4CC0B22100EE
:10406000FDF72FFD002803D1442120000BF03AFC7E
:10407000FF232B70F8BD2369FF2BFBD9E268324880
:10408000A16892B2FFF73EF9002800D00125002375
:1040900001212D48237025750BF024FCC6E7A0688C
:1040A000FFF784F9012812D18022A36852019B18DE
:1040B000A360E3681A00B34200DD32009B1AE3609C
:1040C000E368002B0DDD002DE9D10235DFE70A2082
:1040D000013D00F0B5F8EDB2F2E780260525760146
:1040E000EEE76B425D410135D1E71A4D2878002893
:1040F000A5D00138062808D8FCF73AF8040A0E11B2
:10410000161B1E001448FDF7B9FC00232B7096E720
:104110001148FDF7C7FCF8E7FDF766FCF5E700205E
:104120000E49FDF7CEFCF0E700200C49FDF700FD3D
:10413000EBE701200949F4E701200849F6E7C0460A
:10414000580F0020003800406C0F0020881300003A
:1041500011000020540F00200C0F0020C80E00207A
:104160000D488546FFF79EFC002103E00B4B5B5892
:10417000435004310A480B4B42189A42F6D30A4A7C
:1041800002E0002313600432084B9A42F9D318F07E
:104190008DF8FEF735F9FEE700600020A0FD01086C
:1041A0000000002074010020740100200857002046
:1041B000FEE7000070B5104B05001978002901D109
:1041C000012070BDFA208000FBF7E6FF0B4C0100D8
:1041D0002068FBF7E1FF00F0A3FC041EF0D1032DE3
:1041E000EED8020001202900404200F063FC044B9D
:1041F00020001D60E5E7C046120000200C000020F2
:104200001400002010B50320FFF7D4FF041E03D1D3
:10421000FFF752F9200010BD0124FBE7034A044BCD
:1042200011681B785B1813607047C046701000203F
:1042300012000020014B18687047C0467010002023
:1042400070B50400FFF7F6FF0500631C02D0044BB5
:104250001B78E418FFF7EEFF401BA042FAD370BDB5
:104260001200002080684007C00F70470023F0B59F
:1042700085B004000393984200D1EFE0856D9D4224
:1042800005D1FFF731F923005433E5651D70802314
:1042900025685B05AA681A4200D1A7E00022AB6836
:1042A0000192DB0008D410230126A26D019613436E
:1042B000A365E36D3343E3652800FFF7D3FF1022C6
:1042C000A36D1340034300D0CBE0A26D674B206980
:1042D0001A400633FF331343A365AB68DB0761D491
:1042E000276BE1687B1E9F41A368A27E0B43217E62
:1042F0003F0389030B43617EC9030B4351030B4307
:104300009C46002800DB85E0410049082300664602
:104310002C331B785B0033433B430B43611CC97F49
:10432000012905D1002A00D077E0802252021343F0
:10433000626A002A05D0E02149000A40A16A0A43C6
:104340001343EA684A490A401343EB60230062685A
:104350003C33E16C1B78970FBF079C463943012B18
:1043600008D1236C666C33430B43A16C0B4361464D
:104370003B4319432B693F4F3B400B4380212B614B
:1043800053005B08C9058B420CD080231B069A4260
:1043900008D03949394F0B683B40F027BF033A40FA
:1043A00013430B60072170276B69626B8B431343C8
:1043B0006B616969A36BB9431B010B436B610028F7
:1043C00033D11023A96A5B420B43AB6207216B69AF
:1043D0000B409A4238D10023E365A26D03339A4320
:1043E000023B1343A365019805B0F0BDAA682449B8
:1043F0000A401343AB60234B23491868FBF7CCFEFC
:1044000040000390039B002B00D147E7039B013B37
:104410000393F7E78021890378E72022A76D3A43C9
:10442000A265E26D1143E16582E780239B03984218
:10443000CCD11C21AB6AE369013B9B000B402C39BA
:1044400099400B00216EBFE71223A26D9A43023BF5
:104450001343A3650123E26D1343E3650123019335
:10446000C1E7A36D1A43A265F8E7C046FDFEFFFF52
:104470000102DEFF02FCFF1F08270140FFFFC3FF10
:10448000E8FFFF6F0C000020400D0300704710B5DF
:10449000806AFFF7FBFF10BD70474023806A10B5AC
:1044A000826D134383650423C26D1343C365FFF715
:1044B000F3FF10BD502370B5846AA26D1A422DD14E
:1044C000A26DB133FF331343A365C02325681B01DD
:1044D000EA681A4215D1A37E002B12D12B681B0764
:1044E0000FD52800FFF7BEFE00280ED10C226B6806
:1044F00093436B60A26D0F4B1A400433FF33134399
:10450000A3652000FEF768FB70BD2023A26D134356
:10451000A3650123E26D1343E365F2E7A36DDB06B8
:1045200003D52000FFF7B8FFEEE7236D5B6B9847DC
:10453000EAE7C046FEFEFFFF0023F0B585B0039317
:104540000300009154331A7804000220012A4DD050
:10455000012227691A7025682800FFF783FE0028CA
:1045600000D0F9E0009B04225B6880219C469743C1
:104570006246009B09061B68022A00D1C7E05A0266
:10458000520A8F4234D1A96A0A43AA62009A686922
:1045900092681902734E0A403240884302436A61AE
:1045A000002B1FDAC020704A7049156800042840AB
:1045B0008B4200D09BE0802109040D4212D1136888
:1045C0006B4D2B40034319436A4B116018686A49CD
:1045D000FBF7E2FD0C23434301330393039B002BC2
:1045E00000D081E0002000235434237005B0F0BDDA
:1045F0001F2167460F401039B940CE430196266E01
:104600008E433100002A12D1980E1F321040B8405C
:10461000624608439208E169013220668A42B5D8B1
:10462000A96A01989A00120FBA400140ACE7012232
:104630001342ECD1921813422CD1042633422BD1D1
:104640001A072BD4DA062BD49A062BD45A062BD46D
:104650001A062BD4DA052BD49A052BD45A052BD461
:104660001A052BD4DA042BD49A042BD45A042BD455
:104670001A042BD4DA032BD49A032BD45A032BD449
:104680001A032BD4DA022BD49A022BD45A02BED5A9
:104690001620BCE70120BAE71000B8E70320B6E710
:1046A0000420B4E70520B2E70620B0E70720AEE714
:1046B0000820ACE70920AAE70A20A8E70B20A6E714
:1046C0000C20A4E70D20A2E70E20A0E70F209EE714
:1046D00010209CE711209AE7122098E7132096E714
:1046E000142094E7152092E7039B013B75E72349CB
:1046F0008B4200D076E78021C9030D4200D071E7DC
:1047000013681B4D2B400343194311606AE78F4226
:1047100004D1AA6A5902490A8A43AA62002B00DB23
:1047200060E7114911480A68834208D18023DB03FE
:10473000086813400E4A024013430B6052E70F48CB
:10474000834200D04EE7802000040B6802400848F6
:1047500003401A430A6045E72023A26D012013435A
:10476000A36540E700FFFF7F08270140000200A487
:10477000FFFF3FFF0C000020400D0300000400A8D5
:104780000023F7B5026801939168013304001942D0
:1047900001D00020FEBD90682049084208D01022B8
:1047A000A16D0A43A265E26D13430120E365F1E7C1
:1047B00091681B4F39400B4393601A4B1B681B02D7
:1047C0001DD4637E012BE4D0FFF734FD01250600E4
:1047D000226813682B42DCD193682B4203D1936883
:1047E0003B402B439360FFF725FD801B0228EFD948
:1047F0001023A26D1343A365E26D0123D4E70A4B96
:104800000A491868FBF7C8FC01300190019B002B96
:10481000D7D0019B013B0193F8E7C0461700008009
:10482000E8FFFF7F082701400C000020400D030037
:10483000F7B50568040028000E000192FFF712FD8D
:10484000022300283FD1270054373A78012A3AD072
:10485000013B3B70EA681A420CD1AA681A4205D0A3
:10486000AA681A4B1A4002231343AB600123EA687B
:104870001343EB602000FFF783FF031E23D1A16DDC
:10488000134A1140802252000A43A265E065114A92
:10489000206D2168C262104A0263104A42631C22E2
:1048A0000A603B704A68103313434B603200019B2F
:1048B000403100F04DFA03002068044A816811403D
:1048C00004220A4382601800FEBDC046E8FFFF7F55
:1048D000FEF0FFFFB54400088F4400089B44000829
:1048E0000122036870B5040098689968114201D1EB
:1048F000002070BD02210842FAD105209D680540C4
:10490000012D1AD19A68114802401143032299607F
:104910001A60FFF78FFC060023689B682B42E7D0E4
:10492000FFF788FC801B0228F6D91023A26D1343E1
:10493000A365E36D2B43E36506E01023A16D0B43F4
:10494000A365E36D1A43E2650120D2E7E8FFFF7F2C
:10495000F0B500230500022285B0029354352B7870
:1049600004000092012B3ED001262E70FFF7B8FF05
:104970002368009099680A003240314206D0102323
:10498000A26D1343A36500232B702CE0A06D444956
:10499000082608400631FF310143A165D868414926
:1049A00008400190D96840480140D960AE21890291
:1049B0008C463E48802799683F06014039439960FC
:1049C0009968002912DA0299013102910299614530
:1049D000F6D31223A26D9A43023B1343A36500232F
:1049E0002B7001230093009805B0F0BD19007F27BC
:1049F000B4310968013E394001315218002ED9D135
:104A00009968013601403143996080211F69043261
:104A1000D208C9058F421CD31E007F27B4363168E7
:104A2000B9431143022231609968012601400A43CB
:104A30009A60FFF7FFFB070023689A6832421ED195
:104A4000DA6801990A43DA600322A36D9343334382
:104A500098E717490F68F02189033940E0277F0361
:104A6000B942D9D3890C03398E400396039949087A
:104A7000039103990029CFD003990139F8E7FFF793
:104A8000D9FBC01B0228D7D923689B683342D3D0F7
:104A90001023A26D1343A365E36D3343E365A0E7E1
:104AA000FDFEFFFF03800000FC7FFFFFE8FFFF7FAC
:104AB0000827014010B5FF2403220B00210002400B
:104AC000D20091409B012340C943934000280ADB58
:104AD000C0240B4A800880008018A40002590A40B4
:104AE0001343035110BD0F2210400838054A8008B7
:104AF00080008018C26911401943C161F2E7C046C5
:104B000000E100E000ED00E0002805DB1F23184075
:104B10001E3B8340014A13607047C04600E100E03D
:104B20008022431E5204012093420DD2C021074A25
:104B300007485360036A09061B021B0A0B43036202
:104B400000200723906013607047C04610E000E02B
:104B500000ED00E010B5041E01D1012010BD437F1F
:104B6000DAB2002B02D10277FEF71AFD0223637737
:104B70002379002B1CD118212368124A5A619A68A4
:104B80008A439A6062792368002A19D1013A602128
:104B90001A619A6800208A4361690A4380219A60F9
:104BA0009A688A43A1690A439A6001236377D5E72B
:104BB0002000E268A16800F007F80028E2D0CCE706
:104BC0002269E4E7B71DC10430B5012504002800BF
:104BD00029420FD01F23013B22D30800D84028428E
:104BE000F9D0102A15D0102A05D8002A08D00120A3
:104BF000082A12D030BD0120182AFBD1062BF9D883
:104C000020684161182183688B431343836000202F
:104C1000F0E70120072BF3D9ECE70F2BEAD8EFE7F9
:104C20000120102ADFD1E5E7F0B5846CC56C656022
:104C3000046D002C02D0446D856D65601C24056CEC
:104C4000084E25401B3CAC4077683C4374600468C8
:104C500063608368102B02D1A260E160F0BDA160A7
:104C6000E260FBE70000024010B504000068142178
:104C7000C0B20838FBF790FA236C064A9B089B18D1
:104C80009B006364044BA3641C2318401B3B8340BC
:104C9000E36410BD0082001080080240F8B50400F3
:104CA0000120002C45D02568254B1421E818FBF77E
:104CB00073FA02238000A61D2064F3772B68214A33
:104CC000A76813402B60E36821693B430B4361698C
:104CD0002A680B43A16920000B43E1690B43216A59
:104CE0000B4313432B60FFF7BFFF8023DB019F4281
:104CF00001D1002363606268616CD3B20B60E06C29
:104D0000A16C013A4860032A14D80F4A0F48991839
:104D10000122013B9A40A26513000022890021650F
:104D200060650A60436000200123E0630534F37787
:104D3000E077F8BD002323656365A365F3E7C0460C
:104D4000F8FFFDBF0F80FFFF3F82001040090240C7
:104D5000F7B5461D0193F47F05000220012C36D0E3
:104D60000138F077AC1DE07F022784466346C0B26D
:104D700000903800012B28D10020E7772C68E863E9
:104D80002068009B98432060019B2800FFF74CFFA0
:104D90002B6B002B1CD00E232268134323606B6CFB
:104DA0001A68D20304D58022196852000A431A6097
:104DB0002B6D002B04D08022196852000A431A6020
:104DC000012300202268134323600023F377FEBDF4
:104DD000042223689343236022680A23DDE700004E
:104DE000F0B5002808D0841DE37F411D022B05D0BB
:104DF0000423C3630023CB770120F0BD0E25026896
:104E0000466C1368AB4313603368104D2B4033601E
:104E1000012316689E431660026C1B331A401B3B2D
:104E200093400B4E77683B437360C26C836C5A604F
:104E3000036D002B05D01A682A401A60436D826DFD
:104E40005A6001230020E377C877D6E7FFFEFFFF13
:104E500000000240F8B50123411DCB77841DE27F9D
:104E6000022A03D00422C2631800F8BD0E2602688D
:104E70001568B54315601568466C9D43156032682A
:104E8000114D2A403260026C104E15001C22154054
:104E9000AB4077683B437360C26C836C5A60036DB0
:104EA000002B06D01A68084D2A401A60436D826DA7
:104EB0005A600123E3770023CB77836B002B00D06C
:104EC00098470020D1E7C046FFFEFFFF00000240E8
:104ED000F8B51C240427016C264A21403C008C4074
:104EE000166803681D6826420FD03D420DD0196830
:104EF000890602D41968B943196053681C43036BCF
:104F00005460002B1BD0984719E002273C008C40CE
:104F1000264215D03D4213D01968890606D40A25C9
:104F20001968A94319600121831DD97753681C436F
:104F300054600022431DDA77C36A9342E3D1F8BD7F
:104F4000082427008F403E42F9D02542F7D00E2595
:104F50001C68AC431C6001231D008D40290054686F
:104F600021435160821DC363D3770022431DDA774A
:104F7000436BE2E70000024000239C46F0B585B099
:104F80000B6864461A00E24001D105B0F0BD6246EC
:104F9000012696401A0032400192334200D184E04B
:104FA0004F6810233D009D430395022D14D16346A5
:104FB000DA0892008218136A07241D0063461C4019
:104FC0000F23A400A3409D4302950F250B692B409E
:104FD000A340029C2343136263465A000323934079
:104FE0000468DD439C4303233B4093400295039DAB
:104FF0002343013D0360012D5AD9032F55D0C468C6
:10500000029B1C408B6893402343C36080235B0555
:105010001F424AD063469A082D4B9200D2180324AF
:1050200063461C400F23E400A340A026156EF6053E
:105030009D430023B04210D0264E0133B0420CD025
:10504000254E0133B04208D0244E0133B04204D083
:10505000234BC3185E1EB3410533A3402B43136695
:10506000204B019ADD6F019CD2432C43FE0301D4F7
:105070002C001440DC671C4C019DE36F1D43BE03F4
:1050800001D413401D00124BE5671D68019C2C43A1
:10509000FE0201D42C0014401C605C68019D254375
:1050A000BF0201D4144025005D6001239C4467E7E2
:1050B0008468029B65461C40CB6893402343836011
:1050C0003B09AB404468B4432343436097E7C04681
:1050D000001802400004005000080050000C00506E
:1050E00000ECFFAF041802400818024000690840B5
:1050F000431E9841C0B27047002A01D081617047B9
:105100008162FCE77047704770B5084D0400EB689A
:10511000184202D0E860FFF7F5FF2B69234203D065
:1051200020002C61FFF7EFFF70BDC0460018024061
:105130000A2382B00193019B002B07D1054BC000CD
:10514000C01800688001800D02B07047019B013BD0
:10515000F0E7C046009800400A2382B00193019B0B
:10516000002B07D1054BC000C01840688001800D9E
:1051700002B07047019B013BF0E7C0460098004039
:1051800073B504000120002C2FD0244D635DDAB2EA
:10519000002B05D1A5239B002000E254FEF762FB03
:1051A00003236355206802F049FE00232200190002
:1051B000012620791432984218D1002122000800DB
:1051C0005532FF328B421BD16B46227C1A70E3684A
:1051D0006168A268206802F039FE0023637401331D
:1051E0006355237B012B15D0002076BD137001334E
:1051F0005670D170116151619161DBB22832DAE7EA
:10520000117001315070D070106150619061C9B25D
:105210002832D7E7200000F07AFDE5E7950200008C
:1052200070B5A525AD00435D04000220012B09D017
:1052300001236355206802F0F9FD206803F030F87F
:105240000020605570BD7047704770B5A525AD0052
:10525000435D04000220012B07D001236355206821
:10526000617403F017F80020605570BDF0B50400BC
:1052700087B0006803F01BF8802580232D021B02F5
:105280000540184200D1A7E3802226681202736C01
:10529000134201D107B0F0BD0F22736C1A40009287
:1052A0000F22134200D07EE0190001321140134258
:1052B00021D13368D44A20001340802212021343C4
:1052C0003360237DD14ADB009B181B68A26A9B01D7
:1052D0009B0D2363D318A3620AF095FB637C002B1C
:1052E000D2D0E26A2168002ACED18020637C0343B9
:1052F000CB646274C8E7336880221F001201174034
:1053000013421BD0AA235B00E05CFFF725FF2200BD
:10531000A7215532FF3289000300D06161183000A7
:10532000D28803F065F92168B94B0A6820001A4059
:10533000802313430B600AF051FBA5E71B04A3D5A0
:105340003268B34B25001A40802313433360AA23ED
:105350005B00E05CFFF700FF5535FF35031EE86199
:105360000ED0696900290BD03000EA8803F040F9BB
:105370006B69EA6939009B1820006B610AF037FB02
:1053800021680A68130500D57EE7C0239B011A40F7
:105390009A4200D178E70A689E48024053409E4AEC
:1053A00013430B6070E7009B9B000493F3181A688B
:1053B00003926A4692890192039A120400D482E011
:1053C0001968934A2825114080220A431A60009BDD
:1053D0005D4365192B002A006133FF331B7855327A
:1053E000FF32002B0CD11078FFF7B6FE071E4FD00E
:1053F0002B005B33FF33FC351A88E96E3B0044E039
:10540000137802932B005833FF331B78022B00D004
:10541000C9E08023019ADB011A400592019A0298A3
:10542000FC351A4200D18FE0FFF782FE2A6F03009D
:10543000070082420ED200222A67029A7548920023
:10544000B218116801408020800148407249014330
:10545000116002E0121A2A67EFD0019A520608D5AD
:10546000029A6E499200B218106808406C490143D4
:105470001160002B0CD02821009A514361180A00BA
:105480005D32FF32FC311288C96E300003F0B0F893
:105490002823009959436218FC32506FC019506795
:1054A000D06EC019D066106F002803D0926E97425C
:1054B00000D397E0009A20005343E3185533FF339D
:1054C00019780AF094FA23680293039B1B0600D410
:1054D000DAE6029A049B944663441A684A490A40F1
:1054E000802109020A431A6028230099594366184B
:1054F000F27D0492012A00D0B1E0009A01325343B8
:105500000022E3185A60731CDB7F934213D0039B85
:105510005B0600D486E0737D93426AD1337D3B4ABB
:10552000DB009B181A68920192091A6080221968A0
:1055300012060A431A602823009A5343E318197D80
:1055400020000AF060FA9FE6FFF706FE2A6F0300CC
:10555000070082420ED2059A2A67029A2D489200CD
:10556000B218116801408020800148402A49014357
:10557000116002E0121A2A67EFD0019A520608D48D
:10558000029A26499200B218106808402449014343
:105590001160002B00D17BE72821009A514361184C
:1055A0000A005F326DE7029B1C499B00F3181868E4
:1055B00008401B490143196010788300F3181B68E9
:1055C0005B0407D5FFF7B4FD071E00D160E72B0091
:1055D0005D330FE7FFF7C0FD071E00D158E72B0032
:1055E0005F3307E75531FF312068611802F090FE04
:1055F00069E7012B9FD1337D044ADB009B181A68B1
:1056000092B21A601A6895E70F8FFF070098004062
:105610008F0FFF078FBFFF07808000008F8FFF076E
:10562000C0800000737D002B0DD1337DD54ADB0097
:105630009B185A68920192095A6080225968120692
:105640000A435A6077E7012B00D074E7337DCD4AD7
:10565000DB009B185A6892B25A605A68F1E78023BF
:105660000398039A5B00357D18401A4219D1C54A48
:10567000EB009B181B68F26A9B019B0D9A4202D8B3
:105680002900F0625CE7D21AF262B26A1431D218D1
:10569000B262326B0298D3183363611802F038FE9D
:1056A000F2E54023019F019A28001F401A4200D1D1
:1056B000D2E0FFF73DFDF26A0023824200D9131ABF
:1056C0008022019FD201F3621740002B4DD1009A36
:1056D00028335343E3185B7D002B36D18021A94A40
:1056E000EB009B181A680906920192091A601A6861
:1056F0000A431A605A68920192095A605A68114323
:105700005960049B022B0AD1029AAB00D3181A6885
:105710009D490A40202151409C4A0A431A602900B1
:1057200020000AF070F9002F00D1ADE52823009A7F
:105730005343E3181A7D236892009B181968944A12
:105740001140944A0A431A609EE5012BD9D18D4A33
:10575000EB009B181A6892B21A601A681A605A68AD
:1057600092B25A605A685A60CBE7002F08D0029A6A
:10577000AB00D3181968864A1140864A0A431A605A
:105780002822009B5A43A218170038373B78012B78
:1057900029D1916A09189162336B1B183363566BD8
:1057A000536A9E422ED3F61A56632822009842432B
:1057B000A218527D002A44D1724AED00AD182A6821
:1057C000920192092A60002B26D1802228681206B5
:1057D00002432A60282200989BB24243A218928B6F
:1057E000029802F067FD2823009A67495343E318A3
:1057F0001A7D236892009B181A680A403021514094
:10580000624A9FE7002E02D103003E70CDE70023DD
:105810003B7053633300C8E73E2B06D801205A087B
:105820001840121892062868D2E71F2018404642F6
:1058300070415A09121A2868920602438020000615
:10584000C6E7012AC6D14F4AED00AD182A6892B2C8
:105850002A6028681A04BBE7FFF77EFCF26A3B0067
:10586000824200D3131A8022019FD201F3621740B3
:10587000002B3FD1009A28335343E3185B7D002B64
:1058800028D180213F4AEB009B181A680906920133
:1058900092091A601A680A431A605A6892019209BA
:1058A0005A605A6811435960049B022B0AD1029A2C
:1058B000AB00D3181A6834490A4020215140334ABA
:1058C0000A431A60290020000AF09DF8002F00D03A
:1058D000DAE42BE7012BE7D12A4AEB009B181A6880
:1058E00092B21A601A681A605A6892B25A605A687C
:1058F0005A60D9E7002F08D1029AAB00D318196873
:10590000234A1140234A0A431A602822009B5A4323
:10591000A218170038373B78012B00D063E7916A53
:1059200009189162336B1B183363566B536A9E429E
:105930001DD3F61A5663282200984243A218527DBE
:10594000002A3ED10F4AED00AD186A689201920913
:105950006A60002B20D180226868120602436A60C8
:10596000282200989BB24243A218D28B38E7002E1F
:1059700002D103003E70DEE7002353633B70330027
:10598000D9E7C04600980040BF8FFF078080000025
:105990008F8FFF0780C000003E2B06D801205A08D9
:1059A0001840121892066868D8E71F20184046422F
:1059B00070415A09121A6868920602438020000654
:1059C000CCE7012ACCD1474AED00AD186A6892B203
:1059D0006A6068681A04C1E743050CD52268424929
:1059E000536C20000B4053640AF01FF8290020007C
:1059F000FFF72BFC4EE4430405D522683B49536C6A
:105A00000B40536446E4802301009B011940184277
:105A100003D022683649536CF2E7C30418D504203A
:105A200023681A6C82431A641A6C001882431A6441
:105A3000B3239B00E25C012A03D12000E15400F073
:105A400079F92000FFF700FC22682A49536CD7E758
:105A5000030511D508222368196C0A431A645A6C8D
:105A600025490A405A640422196C0A431A6420002A
:105A7000FFF7E9FBFFF70EFC03061FD5B3202368F1
:105A80001E495A6C80000A405A64225C002AEED1FA
:105A9000196C04320A431A640822196C0A43012162
:105AA0001A643C2221545B6D20009B081340B422F1
:105AB0009200A35000F03EF9FFF7ECFB830509D5F7
:105AC00022680F49536C20000B40536409F0A6FF75
:105AD000FFF7E0FBC00501D4FFF7DCFB22680949B2
